{
  "_format": "hh-sol-artifact-1",
  "contractName": "Campaign",
  "sourceName": "contracts/Campaign.sol",
  "abi": [
    {
      "inputs": [
        {
          "internalType": "address",
          "name": "_addr",
          "type": "address"
        },
        {
          "internalType": "uint256",
          "name": "_deadline",
          "type": "uint256"
        },
        {
          "internalType": "uint256",
          "name": "_target",
          "type": "uint256"
        },
        {
          "internalType": "uint256",
          "name": "_id",
          "type": "uint256"
        }
      ],
      "stateMutability": "nonpayable",
      "type": "constructor"
    },
    {
      "anonymous": false,
      "inputs": [
        {
          "indexed": false,
          "internalType": "address",
          "name": "funder",
          "type": "address"
        },
        {
          "indexed": false,
          "internalType": "uint256",
          "name": "amount",
          "type": "uint256"
        }
      ],
      "name": "Contribute",
      "type": "event"
    },
    {
      "anonymous": false,
      "inputs": [
        {
          "indexed": false,
          "internalType": "address",
          "name": "funder",
          "type": "address"
        },
        {
          "indexed": false,
          "internalType": "uint256",
          "name": "_tokenId",
          "type": "uint256"
        },
        {
          "indexed": false,
          "internalType": "address",
          "name": "_nftAddr",
          "type": "address"
        }
      ],
      "name": "ContributeNFT",
      "type": "event"
    },
    {
      "inputs": [
        {
          "internalType": "uint256",
          "name": "_amount",
          "type": "uint256"
        }
      ],
      "name": "contribute",
      "outputs": [],
      "stateMutability": "nonpayable",
      "type": "function"
    },
    {
      "inputs": [
        {
          "internalType": "address",
          "name": "_nftAddr",
          "type": "address"
        },
        {
          "internalType": "uint256",
          "name": "_tokenId",
          "type": "uint256"
        }
      ],
      "name": "donateNFT",
      "outputs": [],
      "stateMutability": "nonpayable",
      "type": "function"
    },
    {
      "inputs": [],
      "name": "getCStatus",
      "outputs": [
        {
          "internalType": "uint256",
          "name": "",
          "type": "uint256"
        }
      ],
      "stateMutability": "view",
      "type": "function"
    },
    {
      "inputs": [],
      "name": "getCreator",
      "outputs": [
        {
          "internalType": "address",
          "name": "",
          "type": "address"
        }
      ],
      "stateMutability": "view",
      "type": "function"
    },
    {
      "inputs": [],
      "name": "getDeadline",
      "outputs": [
        {
          "internalType": "uint256",
          "name": "",
          "type": "uint256"
        }
      ],
      "stateMutability": "view",
      "type": "function"
    },
    {
      "inputs": [],
      "name": "getId",
      "outputs": [
        {
          "internalType": "uint256",
          "name": "",
          "type": "uint256"
        }
      ],
      "stateMutability": "view",
      "type": "function"
    },
    {
      "inputs": [],
      "name": "getTarget",
      "outputs": [
        {
          "internalType": "uint256",
          "name": "",
          "type": "uint256"
        }
      ],
      "stateMutability": "view",
      "type": "function"
    },
    {
      "inputs": [],
      "name": "getTotalRaised",
      "outputs": [
        {
          "internalType": "uint256",
          "name": "",
          "type": "uint256"
        }
      ],
      "stateMutability": "view",
      "type": "function"
    }
  ],
  "bytecode": "0x6080604052737196194358d9d101f9ce180538f4655aba3ff1806000806101000a81548173ffffffffffffffffffffffffffffffffffffffff021916908373ffffffffffffffffffffffffffffffffffffffff1602179055503480156200006557600080fd5b5060405162000d9738038062000d9783398181016040528101906200008b919062000198565b83600260006101000a81548173ffffffffffffffffffffffffffffffffffffffff021916908373ffffffffffffffffffffffffffffffffffffffff1602179055508260068190555081600481905550806001819055506000600381905550505050506200020a565b600080fd5b600073ffffffffffffffffffffffffffffffffffffffff82169050919050565b60006200012582620000f8565b9050919050565b620001378162000118565b81146200014357600080fd5b50565b60008151905062000157816200012c565b92915050565b6000819050919050565b62000172816200015d565b81146200017e57600080fd5b50565b600081519050620001928162000167565b92915050565b60008060008060808587031215620001b557620001b4620000f3565b5b6000620001c58782880162000146565b9450506020620001d88782880162000181565b9350506040620001eb8782880162000181565b9250506060620001fe8782880162000181565b91505092959194509250565b610b7d806200021a6000396000f3fe608060405234801561001057600080fd5b50600436106100885760003560e01c80639f5502931161005b5780639f55029314610103578063c1cbbca714610121578063e39a02ba1461013d578063f00e6a2a1461015b57610088565b80630ee2cb101461008d5780634fae9cf8146100ab5780635d1ca631146100c75780635f8d96de146100e5575b600080fd5b610095610179565b6040516100a29190610721565b60405180910390f35b6100c560048036038101906100c091906107a3565b6101a3565b005b6100cf61033e565b6040516100dc91906107f2565b60405180910390f35b6100ed610348565b6040516100fa91906107f2565b60405180910390f35b61010b610352565b60405161011891906107f2565b60405180910390f35b61013b6004803603810190610136919061080d565b61035c565b005b6101456105c0565b60405161015291906107f2565b60405180910390f35b6101636105e9565b60405161017091906107f2565b60405180910390f35b6000600260009054906101000a900473ffffffffffffffffffffffffffffffffffffffff16905090565b600260009054906101000a900473ffffffffffffffffffffffffffffffffffffffff1673ffffffffffffffffffffffffffffffffffffffff163373ffffffffffffffffffffffffffffffffffffffff16036101fd57600080fd5b6102056105f3565b600560006101000a81548160ff021916908360028111156102295761022861083a565b5b0217905550600060028111156102425761024161083a565b5b600560009054906101000a900460ff1660028111156102645761026361083a565b5b1461026e57600080fd5b8173ffffffffffffffffffffffffffffffffffffffff166323b872dd33600260009054906101000a900473ffffffffffffffffffffffffffffffffffffffff16846040518463ffffffff1660e01b81526004016102cd93929190610869565b600060405180830381600087803b1580156102e757600080fd5b505af11580156102fb573d6000803e3d6000fd5b505050507f03b5a8f02e8f46724e0e4501f20afa9230494b2d24b5edf68d2a594b5bcdb563338284604051610332939291906108a0565b60405180910390a15050565b6000600154905090565b6000600654905090565b6000600354905090565b600260009054906101000a900473ffffffffffffffffffffffffffffffffffffffff1673ffffffffffffffffffffffffffffffffffffffff163373ffffffffffffffffffffffffffffffffffffffff16036103b657600080fd5b6103be6105f3565b600560006101000a81548160ff021916908360028111156103e2576103e161083a565b5b0217905550600060028111156103fb576103fa61083a565b5b600560009054906101000a900460ff16600281111561041d5761041c61083a565b5b1461042757600080fd5b6000811161046a576040517f08c379a000000000000000000000000000000000000000000000000000000000815260040161046190610934565b60405180910390fd5b806003600082825461047c9190610983565b9250508190555060008054906101000a900473ffffffffffffffffffffffffffffffffffffffff1673ffffffffffffffffffffffffffffffffffffffff166323b872dd33600260009054906101000a900473ffffffffffffffffffffffffffffffffffffffff16846040518463ffffffff1660e01b815260040161050293929190610a16565b6020604051808303816000875af1158015610521573d6000803e3d6000fd5b505050506040513d601f19601f820116820180604052508101906105459190610a85565b610584576040517f08c379a000000000000000000000000000000000000000000000000000000000815260040161057b90610afe565b60405180910390fd5b7f906faaf913a60f38b5e8f2d6f5b163239bac2d994fa1a5d21751a51587a9405733826040516105b5929190610b1e565b60405180910390a150565b6000600560009054906101000a900460ff1660028111156105e4576105e361083a565b5b905090565b6000600454905090565b6000600160028111156106095761060861083a565b5b600560009054906101000a900460ff16600281111561062b5761062a61083a565b5b0361063957600190506106dd565b4260065410801561067e5750600160028111156106595761065861083a565b5b600560009054906101000a900460ff16600281111561067b5761067a61083a565b5b14155b1561068c57600290506106dc565b426006541180156106d15750600160028111156106ac576106ab61083a565b5b600560009054906101000a900460ff1660028111156106ce576106cd61083a565b5b14155b156106db57600090505b5b5b90565b600073ffffffffffffffffffffffffffffffffffffffff82169050919050565b600061070b826106e0565b9050919050565b61071b81610700565b82525050565b60006020820190506107366000830184610712565b92915050565b600080fd5b61074a81610700565b811461075557600080fd5b50565b60008135905061076781610741565b92915050565b6000819050919050565b6107808161076d565b811461078b57600080fd5b50565b60008135905061079d81610777565b92915050565b600080604083850312156107ba576107b961073c565b5b60006107c885828601610758565b92505060206107d98582860161078e565b9150509250929050565b6107ec8161076d565b82525050565b600060208201905061080760008301846107e3565b92915050565b6000602082840312156108235761082261073c565b5b60006108318482850161078e565b91505092915050565b7f4e487b7100000000000000000000000000000000000000000000000000000000600052602160045260246000fd5b600060608201905061087e6000830186610712565b61088b6020830185610712565b61089860408301846107e3565b949350505050565b60006060820190506108b56000830186610712565b6108c260208301856107e3565b6108cf6040830184610712565b949350505050565b600082825260208201905092915050565b7f416d6f756e74206d757374206c6172676572207468616e203000000000000000600082015250565b600061091e6019836108d7565b9150610929826108e8565b602082019050919050565b6000602082019050818103600083015261094d81610911565b9050919050565b7f4e487b7100000000000000000000000000000000000000000000000000000000600052601160045260246000fd5b600061098e8261076d565b91506109998361076d565b92508282019050808211156109b1576109b0610954565b5b92915050565b6000819050919050565b60006109dc6109d76109d2846106e0565b6109b7565b6106e0565b9050919050565b60006109ee826109c1565b9050919050565b6000610a00826109e3565b9050919050565b610a10816109f5565b82525050565b6000606082019050610a2b6000830186610712565b610a386020830185610a07565b610a4560408301846107e3565b949350505050565b60008115159050919050565b610a6281610a4d565b8114610a6d57600080fd5b50565b600081519050610a7f81610a59565b92915050565b600060208284031215610a9b57610a9a61073c565b5b6000610aa984828501610a70565b91505092915050565b7f5472616e73666572206661696c65642e00000000000000000000000000000000600082015250565b6000610ae86010836108d7565b9150610af382610ab2565b602082019050919050565b60006020820190508181036000830152610b1781610adb565b9050919050565b6000604082019050610b336000830185610712565b610b4060208301846107e3565b939250505056fea26469706673582212209b2a7b31a011ec6d60563ae02c4aa4b186dfc14d0e3d30da4962787b2b60c29f64736f6c63430008110033",
  "linkReferences": {},
  "deployedLinkReferences": {}
}