{
    "_format": "hh-sol-artifact-1",
    "contractName": "Campaign",
    "sourceName": "contracts/Campaign.sol",
    "abi": [
        {
            "inputs": [
                {
                    "internalType": "address",
                    "name": "_addr",
                    "type": "address"
                },
                {
                    "internalType": "uint256",
                    "name": "_deadline",
                    "type": "uint256"
                },
                {
                    "internalType": "uint256",
                    "name": "_target",
                    "type": "uint256"
                },
                {
                    "internalType": "string",
                    "name": "_url",
                    "type": "string"
                },
                {
                    "internalType": "uint256",
                    "name": "_id",
                    "type": "uint256"
                }
            ],
            "stateMutability": "nonpayable",
            "type": "constructor"
        },
        {
            "anonymous": false,
            "inputs": [
                {
                    "indexed": false,
                    "internalType": "address",
                    "name": "funder",
                    "type": "address"
                },
                {
                    "indexed": false,
                    "internalType": "uint256",
                    "name": "amount",
                    "type": "uint256"
                }
            ],
            "name": "Contribute",
            "type": "event"
        },
        {
            "anonymous": false,
            "inputs": [
                {
                    "indexed": false,
                    "internalType": "address",
                    "name": "withdrawer",
                    "type": "address"
                },
                {
                    "indexed": false,
                    "internalType": "uint256",
                    "name": "amount",
                    "type": "uint256"
                }
            ],
            "name": "Withdraw",
            "type": "event"
        },
        {
            "inputs": [
                {
                    "internalType": "uint256",
                    "name": "_amount",
                    "type": "uint256"
                }
            ],
            "name": "contribute",
            "outputs": [],
            "stateMutability": "payable",
            "type": "function"
        },
        {
            "inputs": [],
            "name": "getCStatus",
            "outputs": [
                {
                    "internalType": "uint256",
                    "name": "",
                    "type": "uint256"
                }
            ],
            "stateMutability": "view",
            "type": "function"
        },
        {
            "inputs": [],
            "name": "getCreator",
            "outputs": [
                {
                    "internalType": "address",
                    "name": "",
                    "type": "address"
                }
            ],
            "stateMutability": "view",
            "type": "function"
        },
        {
            "inputs": [],
            "name": "getDeadline",
            "outputs": [
                {
                    "internalType": "uint256",
                    "name": "",
                    "type": "uint256"
                }
            ],
            "stateMutability": "view",
            "type": "function"
        },
        {
            "inputs": [],
            "name": "getId",
            "outputs": [
                {
                    "internalType": "uint256",
                    "name": "",
                    "type": "uint256"
                }
            ],
            "stateMutability": "view",
            "type": "function"
        },
        {
            "inputs": [],
            "name": "getTarget",
            "outputs": [
                {
                    "internalType": "uint256",
                    "name": "",
                    "type": "uint256"
                }
            ],
            "stateMutability": "view",
            "type": "function"
        },
        {
            "inputs": [],
            "name": "getTotalRaised",
            "outputs": [
                {
                    "internalType": "uint256",
                    "name": "",
                    "type": "uint256"
                }
            ],
            "stateMutability": "view",
            "type": "function"
        },
        {
            "inputs": [],
            "name": "getUrl",
            "outputs": [
                {
                    "internalType": "string",
                    "name": "",
                    "type": "string"
                }
            ],
            "stateMutability": "view",
            "type": "function"
        }
    ],
    "bytecode": "0x60806040527313dc2e575b6a140141746534e082fb4665010b356000806101000a81548173ffffffffffffffffffffffffffffffffffffffff021916908373ffffffffffffffffffffffffffffffffffffffff1602179055503480156200006557600080fd5b506040516200103e3803806200103e83398181016040528101906200008b9190620003fa565b84600260006101000a81548173ffffffffffffffffffffffffffffffffffffffff021916908373ffffffffffffffffffffffffffffffffffffffff16021790555083600781905550826005819055508160039080519060200190620000f29291906200010d565b50806001819055506000600481905550505050505062000506565b8280546200011b90620004d0565b90600052602060002090601f0160209004810192826200013f57600085556200018b565b82601f106200015a57805160ff19168380011785556200018b565b828001600101855582156200018b579182015b828111156200018a5782518255916020019190600101906200016d565b5b5090506200019a91906200019e565b5090565b5b80821115620001b95760008160009055506001016200019f565b5090565b6000604051905090565b600080fd5b600080fd5b600073ffffffffffffffffffffffffffffffffffffffff82169050919050565b6000620001fe82620001d1565b9050919050565b6200021081620001f1565b81146200021c57600080fd5b50565b600081519050620002308162000205565b92915050565b6000819050919050565b6200024b8162000236565b81146200025757600080fd5b50565b6000815190506200026b8162000240565b92915050565b600080fd5b600080fd5b6000601f19601f8301169050919050565b7f4e487b7100000000000000000000000000000000000000000000000000000000600052604160045260246000fd5b620002c6826200027b565b810181811067ffffffffffffffff82111715620002e857620002e76200028c565b5b80604052505050565b6000620002fd620001bd565b90506200030b8282620002bb565b919050565b600067ffffffffffffffff8211156200032e576200032d6200028c565b5b62000339826200027b565b9050602081019050919050565b60005b838110156200036657808201518184015260208101905062000349565b8381111562000376576000848401525b50505050565b6000620003936200038d8462000310565b620002f1565b905082815260208101848484011115620003b257620003b162000276565b5b620003bf84828562000346565b509392505050565b600082601f830112620003df57620003de62000271565b5b8151620003f18482602086016200037c565b91505092915050565b600080600080600060a08688031215620004195762000418620001c7565b5b600062000429888289016200021f565b95505060206200043c888289016200025a565b94505060406200044f888289016200025a565b935050606086015167ffffffffffffffff811115620004735762000472620001cc565b5b6200048188828901620003c7565b925050608062000494888289016200025a565b9150509295509295909350565b7f4e487b7100000000000000000000000000000000000000000000000000000000600052602260045260246000fd5b60006002820490506001821680620004e957607f821691505b602082108114156200050057620004ff620004a1565b5b50919050565b610b2880620005166000396000f3fe60806040526004361061007b5760003560e01c8063c1cbbca71161004e578063c1cbbca71461012c578063d6bd872714610148578063e39a02ba14610173578063f00e6a2a1461019e5761007b565b80630ee2cb10146100805780635d1ca631146100ab5780635f8d96de146100d65780639f55029314610101575b600080fd5b34801561008c57600080fd5b506100956101c9565b6040516100a29190610679565b60405180910390f35b3480156100b757600080fd5b506100c06101f3565b6040516100cd91906106ad565b60405180910390f35b3480156100e257600080fd5b506100eb6101fd565b6040516100f891906106ad565b60405180910390f35b34801561010d57600080fd5b50610116610207565b60405161012391906106ad565b60405180910390f35b610146600480360381019061014191906106f9565b610211565b005b34801561015457600080fd5b5061015d610485565b60405161016a91906107bf565b60405180910390f35b34801561017f57600080fd5b50610188610517565b60405161019591906106ad565b60405180910390f35b3480156101aa57600080fd5b506101b3610540565b6040516101c091906106ad565b60405180910390f35b6000600260009054906101000a900473ffffffffffffffffffffffffffffffffffffffff16905090565b6000600154905090565b6000600754905090565b6000600454905090565b600260009054906101000a900473ffffffffffffffffffffffffffffffffffffffff1673ffffffffffffffffffffffffffffffffffffffff163373ffffffffffffffffffffffffffffffffffffffff16141561026c57600080fd5b61027461054a565b600660006101000a81548160ff02191690836002811115610298576102976107e1565b5b0217905550600060028111156102b1576102b06107e1565b5b600660009054906101000a900460ff1660028111156102d3576102d26107e1565b5b146102dd57600080fd5b60008111610320576040517f08c379a00000000000000000000000000000000000000000000000000000000081526004016103179061085c565b60405180910390fd5b806004600082825461033291906108ab565b9250508190555060008054906101000a900473ffffffffffffffffffffffffffffffffffffffff1673ffffffffffffffffffffffffffffffffffffffff166323b872dd33600260009054906101000a900473ffffffffffffffffffffffffffffffffffffffff16846040518463ffffffff1660e01b81526004016103b893929190610960565b602060405180830381600087803b1580156103d257600080fd5b505af11580156103e6573d6000803e3d6000fd5b505050506040513d601f19601f8201168201806040525081019061040a91906109cf565b610449576040517f08c379a000000000000000000000000000000000000000000000000000000000815260040161044090610a48565b60405180910390fd5b7f906faaf913a60f38b5e8f2d6f5b163239bac2d994fa1a5d21751a51587a94057338260405161047a929190610a68565b60405180910390a150565b60606003805461049490610ac0565b80601f01602080910402602001604051908101604052809291908181526020018280546104c090610ac0565b801561050d5780601f106104e25761010080835404028352916020019161050d565b820191906000526020600020905b8154815290600101906020018083116104f057829003601f168201915b5050505050905090565b6000600660009054906101000a900460ff16600281111561053b5761053a6107e1565b5b905090565b6000600554905090565b6000600160028111156105605761055f6107e1565b5b600660009054906101000a900460ff166002811115610582576105816107e1565b5b14156105915760019050610635565b426007541080156105d65750600160028111156105b1576105b06107e1565b5b600660009054906101000a900460ff1660028111156105d3576105d26107e1565b5b14155b156105e45760029050610634565b42600754118015610629575060016002811115610604576106036107e1565b5b600660009054906101000a900460ff166002811115610626576106256107e1565b5b14155b1561063357600090505b5b5b90565b600073ffffffffffffffffffffffffffffffffffffffff82169050919050565b600061066382610638565b9050919050565b61067381610658565b82525050565b600060208201905061068e600083018461066a565b92915050565b6000819050919050565b6106a781610694565b82525050565b60006020820190506106c2600083018461069e565b92915050565b600080fd5b6106d681610694565b81146106e157600080fd5b50565b6000813590506106f3816106cd565b92915050565b60006020828403121561070f5761070e6106c8565b5b600061071d848285016106e4565b91505092915050565b600081519050919050565b600082825260208201905092915050565b60005b83811015610760578082015181840152602081019050610745565b8381111561076f576000848401525b50505050565b6000601f19601f8301169050919050565b600061079182610726565b61079b8185610731565b93506107ab818560208601610742565b6107b481610775565b840191505092915050565b600060208201905081810360008301526107d98184610786565b905092915050565b7f4e487b7100000000000000000000000000000000000000000000000000000000600052602160045260246000fd5b7f416d6f756e74206d757374206c6172676572207468616e203000000000000000600082015250565b6000610846601983610731565b915061085182610810565b602082019050919050565b6000602082019050818103600083015261087581610839565b9050919050565b7f4e487b7100000000000000000000000000000000000000000000000000000000600052601160045260246000fd5b60006108b682610694565b91506108c183610694565b9250827fffffffffffffffffffffffffffffffffffffffffffffffffffffffffffffffff038211156108f6576108f561087c565b5b828201905092915050565b6000819050919050565b600061092661092161091c84610638565b610901565b610638565b9050919050565b60006109388261090b565b9050919050565b600061094a8261092d565b9050919050565b61095a8161093f565b82525050565b6000606082019050610975600083018661066a565b6109826020830185610951565b61098f604083018461069e565b949350505050565b60008115159050919050565b6109ac81610997565b81146109b757600080fd5b50565b6000815190506109c9816109a3565b92915050565b6000602082840312156109e5576109e46106c8565b5b60006109f3848285016109ba565b91505092915050565b7f5472616e73666572206661696c65642e00000000000000000000000000000000600082015250565b6000610a32601083610731565b9150610a3d826109fc565b602082019050919050565b60006020820190508181036000830152610a6181610a25565b9050919050565b6000604082019050610a7d600083018561066a565b610a8a602083018461069e565b9392505050565b7f4e487b7100000000000000000000000000000000000000000000000000000000600052602260045260246000fd5b60006002820490506001821680610ad857607f821691505b60208210811415610aec57610aeb610a91565b5b5091905056fea26469706673582212207ccc8e3667894fe85ee70b0143e276427a12c7002c7cb2a64f4eb257e1cdbcec64736f6c63430008090033",
    "linkReferences": {},
    "deployedLinkReferences": {}
}