{
  "_format": "hh-sol-artifact-1",
  "contractName": "Campaign",
  "sourceName": "contracts/Campaign.sol",
  "abi": [
    {
      "inputs": [
        {
          "internalType": "address",
          "name": "_addr",
          "type": "address"
        },
        {
          "internalType": "uint256",
          "name": "_deadline",
          "type": "uint256"
        },
        {
          "internalType": "uint256",
          "name": "_target",
          "type": "uint256"
        },
        {
          "internalType": "uint256",
          "name": "_id",
          "type": "uint256"
        }
      ],
      "stateMutability": "nonpayable",
      "type": "constructor"
    },
    {
      "anonymous": false,
      "inputs": [
        {
          "indexed": false,
          "internalType": "address",
          "name": "funder",
          "type": "address"
        },
        {
          "indexed": false,
          "internalType": "uint256",
          "name": "amount",
          "type": "uint256"
        }
      ],
      "name": "Contribute",
      "type": "event"
    },
    {
      "anonymous": false,
      "inputs": [
        {
          "indexed": false,
          "internalType": "address",
          "name": "funder",
          "type": "address"
        },
        {
          "indexed": false,
          "internalType": "uint256",
          "name": "_tokenId",
          "type": "uint256"
        },
        {
          "indexed": false,
          "internalType": "address",
          "name": "_nftAddr",
          "type": "address"
        }
      ],
      "name": "ContributeNFT",
      "type": "event"
    },
    {
      "inputs": [
        {
          "internalType": "uint256",
          "name": "_amount",
          "type": "uint256"
        }
      ],
      "name": "contribute",
      "outputs": [],
      "stateMutability": "nonpayable",
      "type": "function"
    },
    {
      "inputs": [],
      "name": "getCStatus",
      "outputs": [
        {
          "internalType": "uint256",
          "name": "",
          "type": "uint256"
        }
      ],
      "stateMutability": "view",
      "type": "function"
    },
    {
      "inputs": [],
      "name": "getCreator",
      "outputs": [
        {
          "internalType": "address",
          "name": "",
          "type": "address"
        }
      ],
      "stateMutability": "view",
      "type": "function"
    },
    {
      "inputs": [],
      "name": "getDeadline",
      "outputs": [
        {
          "internalType": "uint256",
          "name": "",
          "type": "uint256"
        }
      ],
      "stateMutability": "view",
      "type": "function"
    },
    {
      "inputs": [],
      "name": "getId",
      "outputs": [
        {
          "internalType": "uint256",
          "name": "",
          "type": "uint256"
        }
      ],
      "stateMutability": "view",
      "type": "function"
    },
    {
      "inputs": [],
      "name": "getTarget",
      "outputs": [
        {
          "internalType": "uint256",
          "name": "",
          "type": "uint256"
        }
      ],
      "stateMutability": "view",
      "type": "function"
    },
    {
      "inputs": [],
      "name": "getTotalRaised",
      "outputs": [
        {
          "internalType": "uint256",
          "name": "",
          "type": "uint256"
        }
      ],
      "stateMutability": "view",
      "type": "function"
    }
  ],
  "bytecode": "0x6080604052739e6fe4fa40832f952883d873893f80221a56e4f86000806101000a81548173ffffffffffffffffffffffffffffffffffffffff021916908373ffffffffffffffffffffffffffffffffffffffff16021790555034801561006457600080fd5b50604051610add380380610add83398181016040528101906100869190610186565b83600260006101000a81548173ffffffffffffffffffffffffffffffffffffffff021916908373ffffffffffffffffffffffffffffffffffffffff1602179055508260068190555081600481905550806001819055506000600381905550505050506101ed565b600080fd5b600073ffffffffffffffffffffffffffffffffffffffff82169050919050565b600061011d826100f2565b9050919050565b61012d81610112565b811461013857600080fd5b50565b60008151905061014a81610124565b92915050565b6000819050919050565b61016381610150565b811461016e57600080fd5b50565b6000815190506101808161015a565b92915050565b600080600080608085870312156101a05761019f6100ed565b5b60006101ae8782880161013b565b94505060206101bf87828801610171565b93505060406101d087828801610171565b92505060606101e187828801610171565b91505092959194509250565b6108e1806101fc6000396000f3fe608060405234801561001057600080fd5b506004361061007d5760003560e01c80639f5502931161005b5780639f550293146100dc578063c1cbbca7146100fa578063e39a02ba14610116578063f00e6a2a146101345761007d565b80630ee2cb10146100825780635d1ca631146100a05780635f8d96de146100be575b600080fd5b61008a610152565b604051610097919061055f565b60405180910390f35b6100a861017c565b6040516100b59190610593565b60405180910390f35b6100c6610186565b6040516100d39190610593565b60405180910390f35b6100e4610190565b6040516100f19190610593565b60405180910390f35b610114600480360381019061010f91906105df565b61019a565b005b61011e6103fe565b60405161012b9190610593565b60405180910390f35b61013c610427565b6040516101499190610593565b60405180910390f35b6000600260009054906101000a900473ffffffffffffffffffffffffffffffffffffffff16905090565b6000600154905090565b6000600654905090565b6000600354905090565b600260009054906101000a900473ffffffffffffffffffffffffffffffffffffffff1673ffffffffffffffffffffffffffffffffffffffff163373ffffffffffffffffffffffffffffffffffffffff16036101f457600080fd5b6101fc610431565b600560006101000a81548160ff021916908360028111156102205761021f61060c565b5b0217905550600060028111156102395761023861060c565b5b600560009054906101000a900460ff16600281111561025b5761025a61060c565b5b1461026557600080fd5b600081116102a8576040517f08c379a000000000000000000000000000000000000000000000000000000000815260040161029f90610698565b60405180910390fd5b80600360008282546102ba91906106e7565b9250508190555060008054906101000a900473ffffffffffffffffffffffffffffffffffffffff1673ffffffffffffffffffffffffffffffffffffffff166323b872dd33600260009054906101000a900473ffffffffffffffffffffffffffffffffffffffff16846040518463ffffffff1660e01b81526004016103409392919061077a565b6020604051808303816000875af115801561035f573d6000803e3d6000fd5b505050506040513d601f19601f8201168201806040525081019061038391906107e9565b6103c2576040517f08c379a00000000000000000000000000000000000000000000000000000000081526004016103b990610862565b60405180910390fd5b7f906faaf913a60f38b5e8f2d6f5b163239bac2d994fa1a5d21751a51587a9405733826040516103f3929190610882565b60405180910390a150565b6000600560009054906101000a900460ff1660028111156104225761042161060c565b5b905090565b6000600454905090565b6000600160028111156104475761044661060c565b5b600560009054906101000a900460ff1660028111156104695761046861060c565b5b03610477576001905061051b565b426006541080156104bc5750600160028111156104975761049661060c565b5b600560009054906101000a900460ff1660028111156104b9576104b861060c565b5b14155b156104ca576002905061051a565b4260065411801561050f5750600160028111156104ea576104e961060c565b5b600560009054906101000a900460ff16600281111561050c5761050b61060c565b5b14155b1561051957600090505b5b5b90565b600073ffffffffffffffffffffffffffffffffffffffff82169050919050565b60006105498261051e565b9050919050565b6105598161053e565b82525050565b60006020820190506105746000830184610550565b92915050565b6000819050919050565b61058d8161057a565b82525050565b60006020820190506105a86000830184610584565b92915050565b600080fd5b6105bc8161057a565b81146105c757600080fd5b50565b6000813590506105d9816105b3565b92915050565b6000602082840312156105f5576105f46105ae565b5b6000610603848285016105ca565b91505092915050565b7f4e487b7100000000000000000000000000000000000000000000000000000000600052602160045260246000fd5b600082825260208201905092915050565b7f416d6f756e74206d757374206c6172676572207468616e203000000000000000600082015250565b600061068260198361063b565b915061068d8261064c565b602082019050919050565b600060208201905081810360008301526106b181610675565b9050919050565b7f4e487b7100000000000000000000000000000000000000000000000000000000600052601160045260246000fd5b60006106f28261057a565b91506106fd8361057a565b9250828201905080821115610715576107146106b8565b5b92915050565b6000819050919050565b600061074061073b6107368461051e565b61071b565b61051e565b9050919050565b600061075282610725565b9050919050565b600061076482610747565b9050919050565b61077481610759565b82525050565b600060608201905061078f6000830186610550565b61079c602083018561076b565b6107a96040830184610584565b949350505050565b60008115159050919050565b6107c6816107b1565b81146107d157600080fd5b50565b6000815190506107e3816107bd565b92915050565b6000602082840312156107ff576107fe6105ae565b5b600061080d848285016107d4565b91505092915050565b7f5472616e73666572206661696c65642e00000000000000000000000000000000600082015250565b600061084c60108361063b565b915061085782610816565b602082019050919050565b6000602082019050818103600083015261087b8161083f565b9050919050565b60006040820190506108976000830185610550565b6108a46020830184610584565b939250505056fea264697066735822122088db969c95c7c7ccf2c6f7ec23e25a59dd5dbf7fe596efc985ad534473b26b4c64736f6c63430008110033",
  "linkReferences": {},
  "deployedLinkReferences": {}
}