{
  "_format": "hh-sol-artifact-1",
  "contractName": "Manager",
  "sourceName": "contracts/Manager.sol",
  "abi": [
    {
      "inputs": [
        {
          "internalType": "uint256",
          "name": "_target",
          "type": "uint256"
        },
        {
          "internalType": "uint256",
          "name": "_deadline",
          "type": "uint256"
        }
      ],
      "name": "createCampaign",
      "outputs": [
        {
          "internalType": "uint256",
          "name": "",
          "type": "uint256"
        }
      ],
      "stateMutability": "nonpayable",
      "type": "function"
    },
    {
      "inputs": [
        {
          "internalType": "uint256",
          "name": "_id",
          "type": "uint256"
        }
      ],
      "name": "getCampaignAddress",
      "outputs": [
        {
          "internalType": "address",
          "name": "",
          "type": "address"
        }
      ],
      "stateMutability": "view",
      "type": "function"
    },
    {
      "inputs": [
        {
          "internalType": "uint256",
          "name": "_campaignList",
          "type": "uint256"
        }
      ],
      "name": "getCampaignInfo",
      "outputs": [
        {
          "internalType": "address[]",
          "name": "creator",
          "type": "address[]"
        },
        {
          "internalType": "uint256[]",
          "name": "target",
          "type": "uint256[]"
        },
        {
          "internalType": "uint256[]",
          "name": "deadline",
          "type": "uint256[]"
        },
        {
          "internalType": "uint256[]",
          "name": "campaignId",
          "type": "uint256[]"
        },
        {
          "internalType": "uint256[]",
          "name": "totalRaised",
          "type": "uint256[]"
        },
        {
          "internalType": "uint256[]",
          "name": "Status",
          "type": "uint256[]"
        },
        {
          "internalType": "address[]",
          "name": "campaignAddr",
          "type": "address[]"
        }
      ],
      "stateMutability": "view",
      "type": "function"
    },
    {
      "inputs": [],
      "name": "getTotalCampaigns",
      "outputs": [
        {
          "internalType": "uint256",
          "name": "",
          "type": "uint256"
        }
      ],
      "stateMutability": "view",
      "type": "function"
    }
  ],
  "bytecode": "0x608060405234801561001057600080fd5b50611eb5806100206000396000f3fe60806040523480156200001157600080fd5b5060043610620000525760003560e01c806316f43dd41462000057578063225022681462000079578063e1231ec514620000af578063e38e2b8214620000e5575b600080fd5b6200006162000121565b60405162000070919062000aa8565b60405180910390f35b62000097600480360381019062000091919062000afb565b6200012a565b604051620000a6919062000aa8565b60405180910390f35b620000cd6004803603810190620000c7919062000b42565b62000276565b604051620000dc919062000bb9565b60405180910390f35b620001036004803603810190620000fd919062000b42565b620002c1565b60405162000118979695949392919062000d72565b60405180910390f35b60008054905090565b600080831162000171576040517f08c379a0000000000000000000000000000000000000000000000000000000008152600401620001689062000e81565b60405180910390fd5b42821015620001b7576040517f08c379a0000000000000000000000000000000000000000000000000000000008152600401620001ae9062000ef3565b60405180910390fd5b600080549050600080815480929190620001d19062000f44565b9190505550600033848684604051620001ea9062000a7f565b620001f9949392919062000f91565b604051809103906000f08015801562000216573d6000803e3d6000fd5b509050806001600084815260200190815260200160002060006101000a81548173ffffffffffffffffffffffffffffffffffffffff021916908373ffffffffffffffffffffffffffffffffffffffff160217905550819250505092915050565b6000805482106200028657600080fd5b6001600083815260200190815260200160002060009054906101000a900473ffffffffffffffffffffffffffffffffffffffff169050919050565b60608060608060608060608767ffffffffffffffff811115620002e957620002e862000fde565b5b604051908082528060200260200182016040528015620003185781602001602082028036833780820191505090505b5096508767ffffffffffffffff81111562000338576200033762000fde565b5b604051908082528060200260200182016040528015620003675781602001602082028036833780820191505090505b5092508767ffffffffffffffff81111562000387576200038662000fde565b5b604051908082528060200260200182016040528015620003b65781602001602082028036833780820191505090505b5095508767ffffffffffffffff811115620003d657620003d562000fde565b5b604051908082528060200260200182016040528015620004055781602001602082028036833780820191505090505b5093508767ffffffffffffffff81111562000425576200042462000fde565b5b604051908082528060200260200182016040528015620004545781602001602082028036833780820191505090505b5094508767ffffffffffffffff81111562000474576200047362000fde565b5b604051908082528060200260200182016040528015620004a35781602001602082028036833780820191505090505b5091508767ffffffffffffffff811115620004c357620004c262000fde565b5b604051908082528060200260200182016040528015620004f25781602001602082028036833780820191505090505b50905060005b8881101562000a73576001600082815260200190815260200160002060009054906101000a900473ffffffffffffffffffffffffffffffffffffffff1673ffffffffffffffffffffffffffffffffffffffff16630ee2cb106040518163ffffffff1660e01b8152600401602060405180830381865afa15801562000580573d6000803e3d6000fd5b505050506040513d601f19601f82011682018060405250810190620005a691906200103e565b888281518110620005bc57620005bb62001070565b5b602002602001019073ffffffffffffffffffffffffffffffffffffffff16908173ffffffffffffffffffffffffffffffffffffffff16815250506001600082815260200190815260200160002060009054906101000a900473ffffffffffffffffffffffffffffffffffffffff1673ffffffffffffffffffffffffffffffffffffffff16639f5502936040518163ffffffff1660e01b8152600401602060405180830381865afa15801562000675573d6000803e3d6000fd5b505050506040513d601f19601f820116820180604052508101906200069b9190620010b6565b848281518110620006b157620006b062001070565b5b6020026020010181815250506001600082815260200190815260200160002060009054906101000a900473ffffffffffffffffffffffffffffffffffffffff1673ffffffffffffffffffffffffffffffffffffffff1663f00e6a2a6040518163ffffffff1660e01b8152600401602060405180830381865afa1580156200073c573d6000803e3d6000fd5b505050506040513d601f19601f82011682018060405250810190620007629190620010b6565b87828151811062000778576200077762001070565b5b6020026020010181815250506001600082815260200190815260200160002060009054906101000a900473ffffffffffffffffffffffffffffffffffffffff1673ffffffffffffffffffffffffffffffffffffffff16635d1ca6316040518163ffffffff1660e01b8152600401602060405180830381865afa15801562000803573d6000803e3d6000fd5b505050506040513d601f19601f82011682018060405250810190620008299190620010b6565b8582815181106200083f576200083e62001070565b5b6020026020010181815250506001600082815260200190815260200160002060009054906101000a900473ffffffffffffffffffffffffffffffffffffffff1673ffffffffffffffffffffffffffffffffffffffff16635f8d96de6040518163ffffffff1660e01b8152600401602060405180830381865afa158015620008ca573d6000803e3d6000fd5b505050506040513d601f19601f82011682018060405250810190620008f09190620010b6565b86828151811062000906576200090562001070565b5b6020026020010181815250506001600082815260200190815260200160002060009054906101000a900473ffffffffffffffffffffffffffffffffffffffff1673ffffffffffffffffffffffffffffffffffffffff1663e39a02ba6040518163ffffffff1660e01b8152600401602060405180830381865afa15801562000991573d6000803e3d6000fd5b505050506040513d601f19601f82011682018060405250810190620009b79190620010b6565b838281518110620009cd57620009cc62001070565b5b6020026020010181815250506001600082815260200190815260200160002060009054906101000a900473ffffffffffffffffffffffffffffffffffffffff1682828151811062000a235762000a2262001070565b5b602002602001019073ffffffffffffffffffffffffffffffffffffffff16908173ffffffffffffffffffffffffffffffffffffffff1681525050808062000a6a9062000f44565b915050620004f8565b50919395979092949650565b610d9780620010e983390190565b6000819050919050565b62000aa28162000a8d565b82525050565b600060208201905062000abf600083018462000a97565b92915050565b600080fd5b62000ad58162000a8d565b811462000ae157600080fd5b50565b60008135905062000af58162000aca565b92915050565b6000806040838503121562000b155762000b1462000ac5565b5b600062000b258582860162000ae4565b925050602062000b388582860162000ae4565b9150509250929050565b60006020828403121562000b5b5762000b5a62000ac5565b5b600062000b6b8482850162000ae4565b91505092915050565b600073ffffffffffffffffffffffffffffffffffffffff82169050919050565b600062000ba18262000b74565b9050919050565b62000bb38162000b94565b82525050565b600060208201905062000bd0600083018462000ba8565b92915050565b600081519050919050565b600082825260208201905092915050565b6000819050602082019050919050565b62000c0d8162000b94565b82525050565b600062000c21838362000c02565b60208301905092915050565b6000602082019050919050565b600062000c478262000bd6565b62000c53818562000be1565b935062000c608362000bf2565b8060005b8381101562000c9757815162000c7b888262000c13565b975062000c888362000c2d565b92505060018101905062000c64565b5085935050505092915050565b600081519050919050565b600082825260208201905092915050565b6000819050602082019050919050565b62000cdb8162000a8d565b82525050565b600062000cef838362000cd0565b60208301905092915050565b6000602082019050919050565b600062000d158262000ca4565b62000d21818562000caf565b935062000d2e8362000cc0565b8060005b8381101562000d6557815162000d49888262000ce1565b975062000d568362000cfb565b92505060018101905062000d32565b5085935050505092915050565b600060e082019050818103600083015262000d8e818a62000c3a565b9050818103602083015262000da4818962000d08565b9050818103604083015262000dba818862000d08565b9050818103606083015262000dd0818762000d08565b9050818103608083015262000de6818662000d08565b905081810360a083015262000dfc818562000d08565b905081810360c083015262000e12818462000c3a565b905098975050505050505050565b600082825260208201905092915050565b7f416d6f756e74206d757374206c6172676572207468616e203000000000000000600082015250565b600062000e6960198362000e20565b915062000e768262000e31565b602082019050919050565b6000602082019050818103600083015262000e9c8162000e5a565b9050919050565b7f446561646c696e65206d75737420626520696e20746865206675747572650000600082015250565b600062000edb601e8362000e20565b915062000ee88262000ea3565b602082019050919050565b6000602082019050818103600083015262000f0e8162000ecc565b9050919050565b7f4e487b7100000000000000000000000000000000000000000000000000000000600052601160045260246000fd5b600062000f518262000a8d565b91507fffffffffffffffffffffffffffffffffffffffffffffffffffffffffffffffff820362000f865762000f8562000f15565b5b600182019050919050565b600060808201905062000fa8600083018762000ba8565b62000fb7602083018662000a97565b62000fc6604083018562000a97565b62000fd5606083018462000a97565b95945050505050565b7f4e487b7100000000000000000000000000000000000000000000000000000000600052604160045260246000fd5b620010188162000b94565b81146200102457600080fd5b50565b60008151905062001038816200100d565b92915050565b60006020828403121562001057576200105662000ac5565b5b6000620010678482850162001027565b91505092915050565b7f4e487b7100000000000000000000000000000000000000000000000000000000600052603260045260246000fd5b600081519050620010b08162000aca565b92915050565b600060208284031215620010cf57620010ce62000ac5565b5b6000620010df848285016200109f565b9150509291505056fe6080604052737196194358d9d101f9ce180538f4655aba3ff1806000806101000a81548173ffffffffffffffffffffffffffffffffffffffff021916908373ffffffffffffffffffffffffffffffffffffffff1602179055503480156200006557600080fd5b5060405162000d9738038062000d9783398181016040528101906200008b919062000198565b83600260006101000a81548173ffffffffffffffffffffffffffffffffffffffff021916908373ffffffffffffffffffffffffffffffffffffffff1602179055508260068190555081600481905550806001819055506000600381905550505050506200020a565b600080fd5b600073ffffffffffffffffffffffffffffffffffffffff82169050919050565b60006200012582620000f8565b9050919050565b620001378162000118565b81146200014357600080fd5b50565b60008151905062000157816200012c565b92915050565b6000819050919050565b62000172816200015d565b81146200017e57600080fd5b50565b600081519050620001928162000167565b92915050565b60008060008060808587031215620001b557620001b4620000f3565b5b6000620001c58782880162000146565b9450506020620001d88782880162000181565b9350506040620001eb8782880162000181565b9250506060620001fe8782880162000181565b91505092959194509250565b610b7d806200021a6000396000f3fe608060405234801561001057600080fd5b50600436106100885760003560e01c80639f5502931161005b5780639f55029314610103578063c1cbbca714610121578063e39a02ba1461013d578063f00e6a2a1461015b57610088565b80630ee2cb101461008d5780634fae9cf8146100ab5780635d1ca631146100c75780635f8d96de146100e5575b600080fd5b610095610179565b6040516100a29190610721565b60405180910390f35b6100c560048036038101906100c091906107a3565b6101a3565b005b6100cf61033e565b6040516100dc91906107f2565b60405180910390f35b6100ed610348565b6040516100fa91906107f2565b60405180910390f35b61010b610352565b60405161011891906107f2565b60405180910390f35b61013b6004803603810190610136919061080d565b61035c565b005b6101456105c0565b60405161015291906107f2565b60405180910390f35b6101636105e9565b60405161017091906107f2565b60405180910390f35b6000600260009054906101000a900473ffffffffffffffffffffffffffffffffffffffff16905090565b600260009054906101000a900473ffffffffffffffffffffffffffffffffffffffff1673ffffffffffffffffffffffffffffffffffffffff163373ffffffffffffffffffffffffffffffffffffffff16036101fd57600080fd5b6102056105f3565b600560006101000a81548160ff021916908360028111156102295761022861083a565b5b0217905550600060028111156102425761024161083a565b5b600560009054906101000a900460ff1660028111156102645761026361083a565b5b1461026e57600080fd5b8173ffffffffffffffffffffffffffffffffffffffff166323b872dd33600260009054906101000a900473ffffffffffffffffffffffffffffffffffffffff16846040518463ffffffff1660e01b81526004016102cd93929190610869565b600060405180830381600087803b1580156102e757600080fd5b505af11580156102fb573d6000803e3d6000fd5b505050507f03b5a8f02e8f46724e0e4501f20afa9230494b2d24b5edf68d2a594b5bcdb563338284604051610332939291906108a0565b60405180910390a15050565b6000600154905090565b6000600654905090565b6000600354905090565b600260009054906101000a900473ffffffffffffffffffffffffffffffffffffffff1673ffffffffffffffffffffffffffffffffffffffff163373ffffffffffffffffffffffffffffffffffffffff16036103b657600080fd5b6103be6105f3565b600560006101000a81548160ff021916908360028111156103e2576103e161083a565b5b0217905550600060028111156103fb576103fa61083a565b5b600560009054906101000a900460ff16600281111561041d5761041c61083a565b5b1461042757600080fd5b6000811161046a576040517f08c379a000000000000000000000000000000000000000000000000000000000815260040161046190610934565b60405180910390fd5b806003600082825461047c9190610983565b9250508190555060008054906101000a900473ffffffffffffffffffffffffffffffffffffffff1673ffffffffffffffffffffffffffffffffffffffff166323b872dd33600260009054906101000a900473ffffffffffffffffffffffffffffffffffffffff16846040518463ffffffff1660e01b815260040161050293929190610a16565b6020604051808303816000875af1158015610521573d6000803e3d6000fd5b505050506040513d601f19601f820116820180604052508101906105459190610a85565b610584576040517f08c379a000000000000000000000000000000000000000000000000000000000815260040161057b90610afe565b60405180910390fd5b7f906faaf913a60f38b5e8f2d6f5b163239bac2d994fa1a5d21751a51587a9405733826040516105b5929190610b1e565b60405180910390a150565b6000600560009054906101000a900460ff1660028111156105e4576105e361083a565b5b905090565b6000600454905090565b6000600160028111156106095761060861083a565b5b600560009054906101000a900460ff16600281111561062b5761062a61083a565b5b0361063957600190506106dd565b4260065410801561067e5750600160028111156106595761065861083a565b5b600560009054906101000a900460ff16600281111561067b5761067a61083a565b5b14155b1561068c57600290506106dc565b426006541180156106d15750600160028111156106ac576106ab61083a565b5b600560009054906101000a900460ff1660028111156106ce576106cd61083a565b5b14155b156106db57600090505b5b5b90565b600073ffffffffffffffffffffffffffffffffffffffff82169050919050565b600061070b826106e0565b9050919050565b61071b81610700565b82525050565b60006020820190506107366000830184610712565b92915050565b600080fd5b61074a81610700565b811461075557600080fd5b50565b60008135905061076781610741565b92915050565b6000819050919050565b6107808161076d565b811461078b57600080fd5b50565b60008135905061079d81610777565b92915050565b600080604083850312156107ba576107b961073c565b5b60006107c885828601610758565b92505060206107d98582860161078e565b9150509250929050565b6107ec8161076d565b82525050565b600060208201905061080760008301846107e3565b92915050565b6000602082840312156108235761082261073c565b5b60006108318482850161078e565b91505092915050565b7f4e487b7100000000000000000000000000000000000000000000000000000000600052602160045260246000fd5b600060608201905061087e6000830186610712565b61088b6020830185610712565b61089860408301846107e3565b949350505050565b60006060820190506108b56000830186610712565b6108c260208301856107e3565b6108cf6040830184610712565b949350505050565b600082825260208201905092915050565b7f416d6f756e74206d757374206c6172676572207468616e203000000000000000600082015250565b600061091e6019836108d7565b9150610929826108e8565b602082019050919050565b6000602082019050818103600083015261094d81610911565b9050919050565b7f4e487b7100000000000000000000000000000000000000000000000000000000600052601160045260246000fd5b600061098e8261076d565b91506109998361076d565b92508282019050808211156109b1576109b0610954565b5b92915050565b6000819050919050565b60006109dc6109d76109d2846106e0565b6109b7565b6106e0565b9050919050565b60006109ee826109c1565b9050919050565b6000610a00826109e3565b9050919050565b610a10816109f5565b82525050565b6000606082019050610a2b6000830186610712565b610a386020830185610a07565b610a4560408301846107e3565b949350505050565b60008115159050919050565b610a6281610a4d565b8114610a6d57600080fd5b50565b600081519050610a7f81610a59565b92915050565b600060208284031215610a9b57610a9a61073c565b5b6000610aa984828501610a70565b91505092915050565b7f5472616e73666572206661696c65642e00000000000000000000000000000000600082015250565b6000610ae86010836108d7565b9150610af382610ab2565b602082019050919050565b60006020820190508181036000830152610b1781610adb565b9050919050565b6000604082019050610b336000830185610712565b610b4060208301846107e3565b939250505056fea26469706673582212209b2a7b31a011ec6d60563ae02c4aa4b186dfc14d0e3d30da4962787b2b60c29f64736f6c63430008110033a26469706673582212202b20365f56546ba7c56c03baa0e647e3d5f406cddffe71439b613335ea6f64dd64736f6c63430008110033",
  "linkReferences": {},
  "deployedLinkReferences": {}
}