{
  "_format": "hh-sol-artifact-1",
  "contractName": "Manager",
  "sourceName": "contracts/Manager.sol",
  "abi": [
    {
      "inputs": [
        {
          "internalType": "string",
          "name": "_url",
          "type": "string"
        },
        {
          "internalType": "uint256",
          "name": "_target",
          "type": "uint256"
        },
        {
          "internalType": "uint256",
          "name": "_deadline",
          "type": "uint256"
        }
      ],
      "name": "createCampaign",
      "outputs": [
        {
          "internalType": "uint256",
          "name": "",
          "type": "uint256"
        }
      ],
      "stateMutability": "nonpayable",
      "type": "function"
    },
    {
      "inputs": [
        {
          "internalType": "uint256",
          "name": "_id",
          "type": "uint256"
        }
      ],
      "name": "getCampaignAddress",
      "outputs": [
        {
          "internalType": "address",
          "name": "",
          "type": "address"
        }
      ],
      "stateMutability": "view",
      "type": "function"
    },
    {
      "inputs": [
        {
          "internalType": "uint256",
          "name": "_campaignList",
          "type": "uint256"
        }
      ],
      "name": "getCampaignInfo",
      "outputs": [
        {
          "internalType": "address[]",
          "name": "creator",
          "type": "address[]"
        },
        {
          "internalType": "uint256[]",
          "name": "target",
          "type": "uint256[]"
        },
        {
          "internalType": "uint256[]",
          "name": "deadline",
          "type": "uint256[]"
        },
        {
          "internalType": "uint256[]",
          "name": "campaignId",
          "type": "uint256[]"
        },
        {
          "internalType": "uint256[]",
          "name": "totalRaised",
          "type": "uint256[]"
        },
        {
          "internalType": "uint256[]",
          "name": "Status",
          "type": "uint256[]"
        },
        {
          "internalType": "address[]",
          "name": "campaignAddr",
          "type": "address[]"
        },
        {
          "internalType": "string[]",
          "name": "url",
          "type": "string[]"
        }
      ],
      "stateMutability": "view",
      "type": "function"
    },
    {
      "inputs": [],
      "name": "getTotalCampaigns",
      "outputs": [
        {
          "internalType": "uint256",
          "name": "",
          "type": "uint256"
        }
      ],
      "stateMutability": "view",
      "type": "function"
    }
  ],
  "bytecode": "0x608060405234801561001057600080fd5b5061283b806100206000396000f3fe60806040523480156200001157600080fd5b5060043610620000525760003560e01c806316f43dd414620000575780633020580b1462000079578063e1231ec514620000af578063e38e2b8214620000e5575b600080fd5b6200006162000122565b60405162000070919062000bd0565b60405180910390f35b62000097600480360381019062000091919062000ca0565b6200012b565b604051620000a6919062000bd0565b60405180910390f35b620000cd6004803603810190620000c7919062000d20565b6200027d565b604051620000dc919062000d97565b60405180910390f35b620001036004803603810190620000fd919062000d20565b620002c8565b60405162000119989796959493929190620010ba565b60405180910390f35b60008054905090565b600080831162000172576040517f08c379a00000000000000000000000000000000000000000000000000000000081526004016200016990620011e1565b60405180910390fd5b42821015620001b8576040517f08c379a0000000000000000000000000000000000000000000000000000000008152600401620001af9062001253565b60405180910390fd5b600080549050600080815480929190620001d290620012a4565b91905055506000338486898986604051620001ed9062000ba7565b620001fe9695949392919062001333565b604051809103906000f0801580156200021b573d6000803e3d6000fd5b509050806001600084815260200190815260200160002060006101000a81548173ffffffffffffffffffffffffffffffffffffffff021916908373ffffffffffffffffffffffffffffffffffffffff1602179055508192505050949350505050565b6000805482106200028d57600080fd5b6001600083815260200190815260200160002060009054906101000a900473ffffffffffffffffffffffffffffffffffffffff169050919050565b6060806060806060806060808867ffffffffffffffff811115620002f157620002f062001399565b5b604051908082528060200260200182016040528015620003205781602001602082028036833780820191505090505b5097508867ffffffffffffffff81111562000340576200033f62001399565b5b6040519080825280602002602001820160405280156200036f5781602001602082028036833780820191505090505b5093508867ffffffffffffffff8111156200038f576200038e62001399565b5b604051908082528060200260200182016040528015620003be5781602001602082028036833780820191505090505b5096508867ffffffffffffffff811115620003de57620003dd62001399565b5b6040519080825280602002602001820160405280156200040d5781602001602082028036833780820191505090505b5094508867ffffffffffffffff8111156200042d576200042c62001399565b5b6040519080825280602002602001820160405280156200045c5781602001602082028036833780820191505090505b5095508867ffffffffffffffff8111156200047c576200047b62001399565b5b604051908082528060200260200182016040528015620004ab5781602001602082028036833780820191505090505b5092508867ffffffffffffffff811115620004cb57620004ca62001399565b5b604051908082528060200260200182016040528015620004fa5781602001602082028036833780820191505090505b5091508867ffffffffffffffff8111156200051a576200051962001399565b5b6040519080825280602002602001820160405280156200054f57816020015b6060815260200190600190039081620005395790505b50905060005b8981101562000b9b576001600082815260200190815260200160002060009054906101000a900473ffffffffffffffffffffffffffffffffffffffff1673ffffffffffffffffffffffffffffffffffffffff16630ee2cb106040518163ffffffff1660e01b8152600401602060405180830381865afa158015620005dd573d6000803e3d6000fd5b505050506040513d601f19601f82011682018060405250810190620006039190620013f9565b8982815181106200061957620006186200142b565b5b602002602001019073ffffffffffffffffffffffffffffffffffffffff16908173ffffffffffffffffffffffffffffffffffffffff16815250506001600082815260200190815260200160002060009054906101000a900473ffffffffffffffffffffffffffffffffffffffff1673ffffffffffffffffffffffffffffffffffffffff16639f5502936040518163ffffffff1660e01b8152600401602060405180830381865afa158015620006d2573d6000803e3d6000fd5b505050506040513d601f19601f82011682018060405250810190620006f8919062001471565b8582815181106200070e576200070d6200142b565b5b6020026020010181815250506001600082815260200190815260200160002060009054906101000a900473ffffffffffffffffffffffffffffffffffffffff1673ffffffffffffffffffffffffffffffffffffffff1663f00e6a2a6040518163ffffffff1660e01b8152600401602060405180830381865afa15801562000799573d6000803e3d6000fd5b505050506040513d601f19601f82011682018060405250810190620007bf919062001471565b888281518110620007d557620007d46200142b565b5b6020026020010181815250506001600082815260200190815260200160002060009054906101000a900473ffffffffffffffffffffffffffffffffffffffff1673ffffffffffffffffffffffffffffffffffffffff16635d1ca6316040518163ffffffff1660e01b8152600401602060405180830381865afa15801562000860573d6000803e3d6000fd5b505050506040513d601f19601f8201168201806040525081019062000886919062001471565b8682815181106200089c576200089b6200142b565b5b6020026020010181815250506001600082815260200190815260200160002060009054906101000a900473ffffffffffffffffffffffffffffffffffffffff1673ffffffffffffffffffffffffffffffffffffffff16635f8d96de6040518163ffffffff1660e01b8152600401602060405180830381865afa15801562000927573d6000803e3d6000fd5b505050506040513d601f19601f820116820180604052508101906200094d919062001471565b8782815181106200096357620009626200142b565b5b6020026020010181815250506001600082815260200190815260200160002060009054906101000a900473ffffffffffffffffffffffffffffffffffffffff1673ffffffffffffffffffffffffffffffffffffffff1663e39a02ba6040518163ffffffff1660e01b8152600401602060405180830381865afa158015620009ee573d6000803e3d6000fd5b505050506040513d601f19601f8201168201806040525081019062000a14919062001471565b84828151811062000a2a5762000a296200142b565b5b6020026020010181815250506001600082815260200190815260200160002060009054906101000a900473ffffffffffffffffffffffffffffffffffffffff1683828151811062000a805762000a7f6200142b565b5b602002602001019073ffffffffffffffffffffffffffffffffffffffff16908173ffffffffffffffffffffffffffffffffffffffff16815250506001600082815260200190815260200160002060009054906101000a900473ffffffffffffffffffffffffffffffffffffffff1673ffffffffffffffffffffffffffffffffffffffff1663d6bd87276040518163ffffffff1660e01b8152600401600060405180830381865afa15801562000b39573d6000803e3d6000fd5b505050506040513d6000823e3d601f19601f8201168201806040525081019062000b649190620015b1565b82828151811062000b7a5762000b796200142b565b5b6020026020010181905250808062000b9290620012a4565b91505062000555565b50919395975091939597565b611203806200160383390190565b6000819050919050565b62000bca8162000bb5565b82525050565b600060208201905062000be7600083018462000bbf565b92915050565b6000604051905090565b600080fd5b600080fd5b600080fd5b600080fd5b600080fd5b60008083601f84011262000c295762000c2862000c01565b5b8235905067ffffffffffffffff81111562000c495762000c4862000c06565b5b60208301915083600182028301111562000c685762000c6762000c0b565b5b9250929050565b62000c7a8162000bb5565b811462000c8657600080fd5b50565b60008135905062000c9a8162000c6f565b92915050565b6000806000806060858703121562000cbd5762000cbc62000bf7565b5b600085013567ffffffffffffffff81111562000cde5762000cdd62000bfc565b5b62000cec8782880162000c10565b9450945050602062000d018782880162000c89565b925050604062000d148782880162000c89565b91505092959194509250565b60006020828403121562000d395762000d3862000bf7565b5b600062000d498482850162000c89565b91505092915050565b600073ffffffffffffffffffffffffffffffffffffffff82169050919050565b600062000d7f8262000d52565b9050919050565b62000d918162000d72565b82525050565b600060208201905062000dae600083018462000d86565b92915050565b600081519050919050565b600082825260208201905092915050565b6000819050602082019050919050565b62000deb8162000d72565b82525050565b600062000dff838362000de0565b60208301905092915050565b6000602082019050919050565b600062000e258262000db4565b62000e31818562000dbf565b935062000e3e8362000dd0565b8060005b8381101562000e7557815162000e59888262000df1565b975062000e668362000e0b565b92505060018101905062000e42565b5085935050505092915050565b600081519050919050565b600082825260208201905092915050565b6000819050602082019050919050565b62000eb98162000bb5565b82525050565b600062000ecd838362000eae565b60208301905092915050565b6000602082019050919050565b600062000ef38262000e82565b62000eff818562000e8d565b935062000f0c8362000e9e565b8060005b8381101562000f4357815162000f27888262000ebf565b975062000f348362000ed9565b92505060018101905062000f10565b5085935050505092915050565b600081519050919050565b600082825260208201905092915050565b6000819050602082019050919050565b600081519050919050565b600082825260208201905092915050565b60005b8381101562000fb857808201518184015260208101905062000f9b565b60008484015250505050565b6000601f19601f8301169050919050565b600062000fe28262000f7c565b62000fee818562000f87565b93506200100081856020860162000f98565b6200100b8162000fc4565b840191505092915050565b600062001024838362000fd5565b905092915050565b6000602082019050919050565b6000620010468262000f50565b62001052818562000f5b565b935083602082028501620010668562000f6c565b8060005b85811015620010a8578484038952815162001086858262001016565b945062001093836200102c565b925060208a019950506001810190506200106a565b50829750879550505050505092915050565b6000610100820190508181036000830152620010d7818b62000e18565b90508181036020830152620010ed818a62000ee6565b9050818103604083015262001103818962000ee6565b9050818103606083015262001119818862000ee6565b905081810360808301526200112f818762000ee6565b905081810360a083015262001145818662000ee6565b905081810360c08301526200115b818562000e18565b905081810360e083015262001171818462001039565b90509998505050505050505050565b600082825260208201905092915050565b7f416d6f756e74206d757374206c6172676572207468616e203000000000000000600082015250565b6000620011c960198362001180565b9150620011d68262001191565b602082019050919050565b60006020820190508181036000830152620011fc81620011ba565b9050919050565b7f446561646c696e65206d75737420626520696e20746865206675747572650000600082015250565b60006200123b601e8362001180565b9150620012488262001203565b602082019050919050565b600060208201905081810360008301526200126e816200122c565b9050919050565b7f4e487b7100000000000000000000000000000000000000000000000000000000600052601160045260246000fd5b6000620012b18262000bb5565b91507fffffffffffffffffffffffffffffffffffffffffffffffffffffffffffffffff8203620012e657620012e562001275565b5b600182019050919050565b82818337600083830152505050565b60006200130e838562001180565b93506200131d838584620012f1565b620013288362000fc4565b840190509392505050565b600060a0820190506200134a600083018962000d86565b62001359602083018862000bbf565b62001368604083018762000bbf565b81810360608301526200137d81858762001300565b90506200138e608083018462000bbf565b979650505050505050565b7f4e487b7100000000000000000000000000000000000000000000000000000000600052604160045260246000fd5b620013d38162000d72565b8114620013df57600080fd5b50565b600081519050620013f381620013c8565b92915050565b60006020828403121562001412576200141162000bf7565b5b60006200142284828501620013e2565b91505092915050565b7f4e487b7100000000000000000000000000000000000000000000000000000000600052603260045260246000fd5b6000815190506200146b8162000c6f565b92915050565b6000602082840312156200148a576200148962000bf7565b5b60006200149a848285016200145a565b91505092915050565b600080fd5b620014b38262000fc4565b810181811067ffffffffffffffff82111715620014d557620014d462001399565b5b80604052505050565b6000620014ea62000bed565b9050620014f88282620014a8565b919050565b600067ffffffffffffffff8211156200151b576200151a62001399565b5b620015268262000fc4565b9050602081019050919050565b60006200154a6200154484620014fd565b620014de565b905082815260208101848484011115620015695762001568620014a3565b5b6200157684828562000f98565b509392505050565b600082601f83011262001596576200159562000c01565b5b8151620015a884826020860162001533565b91505092915050565b600060208284031215620015ca57620015c962000bf7565b5b600082015167ffffffffffffffff811115620015eb57620015ea62000bfc565b5b620015f9848285016200157e565b9150509291505056fe6080604052739e6fe4fa40832f952883d873893f80221a56e4f86000806101000a81548173ffffffffffffffffffffffffffffffffffffffff021916908373ffffffffffffffffffffffffffffffffffffffff1602179055503480156200006557600080fd5b50604051620012033803806200120383398181016040528101906200008b919062000339565b84600360006101000a81548173ffffffffffffffffffffffffffffffffffffffff021916908373ffffffffffffffffffffffffffffffffffffffff1602179055508360078190555082600581905550806001819055508160029081620000f2919062000621565b506000600481905550505050505062000708565b6000604051905090565b600080fd5b600080fd5b600073ffffffffffffffffffffffffffffffffffffffff82169050919050565b600062000147826200011a565b9050919050565b62000159816200013a565b81146200016557600080fd5b50565b60008151905062000179816200014e565b92915050565b6000819050919050565b62000194816200017f565b8114620001a057600080fd5b50565b600081519050620001b48162000189565b92915050565b600080fd5b600080fd5b6000601f19601f8301169050919050565b7f4e487b7100000000000000000000000000000000000000000000000000000000600052604160045260246000fd5b6200020f82620001c4565b810181811067ffffffffffffffff82111715620002315762000230620001d5565b5b80604052505050565b60006200024662000106565b905062000254828262000204565b919050565b600067ffffffffffffffff821115620002775762000276620001d5565b5b6200028282620001c4565b9050602081019050919050565b60005b83811015620002af57808201518184015260208101905062000292565b60008484015250505050565b6000620002d2620002cc8462000259565b6200023a565b905082815260208101848484011115620002f157620002f0620001bf565b5b620002fe8482856200028f565b509392505050565b600082601f8301126200031e576200031d620001ba565b5b815162000330848260208601620002bb565b91505092915050565b600080600080600060a0868803121562000358576200035762000110565b5b6000620003688882890162000168565b95505060206200037b88828901620001a3565b94505060406200038e88828901620001a3565b935050606086015167ffffffffffffffff811115620003b257620003b162000115565b5b620003c08882890162000306565b9250506080620003d388828901620001a3565b9150509295509295909350565b600081519050919050565b7f4e487b7100000000000000000000000000000000000000000000000000000000600052602260045260246000fd5b600060028204905060018216806200043357607f821691505b602082108103620004495762000448620003eb565b5b50919050565b60008190508160005260206000209050919050565b60006020601f8301049050919050565b600082821b905092915050565b600060088302620004b37fffffffffffffffffffffffffffffffffffffffffffffffffffffffffffffffff8262000474565b620004bf868362000474565b95508019841693508086168417925050509392505050565b6000819050919050565b600062000502620004fc620004f6846200017f565b620004d7565b6200017f565b9050919050565b6000819050919050565b6200051e83620004e1565b620005366200052d8262000509565b84845462000481565b825550505050565b600090565b6200054d6200053e565b6200055a81848462000513565b505050565b5b8181101562000582576200057660008262000543565b60018101905062000560565b5050565b601f821115620005d1576200059b816200044f565b620005a68462000464565b81016020851015620005b6578190505b620005ce620005c58562000464565b8301826200055f565b50505b505050565b600082821c905092915050565b6000620005f660001984600802620005d6565b1980831691505092915050565b6000620006118383620005e3565b9150826002028217905092915050565b6200062c82620003e0565b67ffffffffffffffff811115620006485762000647620001d5565b5b6200065482546200041a565b6200066182828562000586565b600060209050601f83116001811462000699576000841562000684578287015190505b62000690858262000603565b86555062000700565b601f198416620006a9866200044f565b60005b82811015620006d357848901518255600182019150602085019450602081019050620006ac565b86831015620006f35784890151620006ef601f891682620005e3565b8355505b6001600288020188555050505b505050505050565b610aeb80620007186000396000f3fe60806040526004361061007b5760003560e01c8063c1cbbca71161004e578063c1cbbca71461012c578063d6bd872714610148578063e39a02ba14610173578063f00e6a2a1461019e5761007b565b80630ee2cb10146100805780635d1ca631146100ab5780635f8d96de146100d65780639f55029314610101575b600080fd5b34801561008c57600080fd5b506100956101c9565b6040516100a29190610668565b60405180910390f35b3480156100b757600080fd5b506100c06101f3565b6040516100cd919061069c565b60405180910390f35b3480156100e257600080fd5b506100eb6101fd565b6040516100f8919061069c565b60405180910390f35b34801561010d57600080fd5b50610116610207565b604051610123919061069c565b60405180910390f35b610146600480360381019061014191906106e8565b610211565b005b34801561015457600080fd5b5061015d610475565b60405161016a91906107a5565b60405180910390f35b34801561017f57600080fd5b50610188610507565b604051610195919061069c565b60405180910390f35b3480156101aa57600080fd5b506101b3610530565b6040516101c0919061069c565b60405180910390f35b6000600360009054906101000a900473ffffffffffffffffffffffffffffffffffffffff16905090565b6000600154905090565b6000600754905090565b6000600454905090565b600360009054906101000a900473ffffffffffffffffffffffffffffffffffffffff1673ffffffffffffffffffffffffffffffffffffffff163373ffffffffffffffffffffffffffffffffffffffff160361026b57600080fd5b61027361053a565b600660006101000a81548160ff02191690836002811115610297576102966107c7565b5b0217905550600060028111156102b0576102af6107c7565b5b600660009054906101000a900460ff1660028111156102d2576102d16107c7565b5b146102dc57600080fd5b6000811161031f576040517f08c379a000000000000000000000000000000000000000000000000000000000815260040161031690610842565b60405180910390fd5b80600460008282546103319190610891565b9250508190555060008054906101000a900473ffffffffffffffffffffffffffffffffffffffff1673ffffffffffffffffffffffffffffffffffffffff166323b872dd33600360009054906101000a900473ffffffffffffffffffffffffffffffffffffffff16846040518463ffffffff1660e01b81526004016103b793929190610924565b6020604051808303816000875af11580156103d6573d6000803e3d6000fd5b505050506040513d601f19601f820116820180604052508101906103fa9190610993565b610439576040517f08c379a000000000000000000000000000000000000000000000000000000000815260040161043090610a0c565b60405180910390fd5b7f906faaf913a60f38b5e8f2d6f5b163239bac2d994fa1a5d21751a51587a94057338260405161046a929190610a2c565b60405180910390a150565b60606002805461048490610a84565b80601f01602080910402602001604051908101604052809291908181526020018280546104b090610a84565b80156104fd5780601f106104d2576101008083540402835291602001916104fd565b820191906000526020600020905b8154815290600101906020018083116104e057829003601f168201915b5050505050905090565b6000600660009054906101000a900460ff16600281111561052b5761052a6107c7565b5b905090565b6000600554905090565b6000600160028111156105505761054f6107c7565b5b600660009054906101000a900460ff166002811115610572576105716107c7565b5b036105805760019050610624565b426007541080156105c55750600160028111156105a05761059f6107c7565b5b600660009054906101000a900460ff1660028111156105c2576105c16107c7565b5b14155b156105d35760029050610623565b426007541180156106185750600160028111156105f3576105f26107c7565b5b600660009054906101000a900460ff166002811115610615576106146107c7565b5b14155b1561062257600090505b5b5b90565b600073ffffffffffffffffffffffffffffffffffffffff82169050919050565b600061065282610627565b9050919050565b61066281610647565b82525050565b600060208201905061067d6000830184610659565b92915050565b6000819050919050565b61069681610683565b82525050565b60006020820190506106b1600083018461068d565b92915050565b600080fd5b6106c581610683565b81146106d057600080fd5b50565b6000813590506106e2816106bc565b92915050565b6000602082840312156106fe576106fd6106b7565b5b600061070c848285016106d3565b91505092915050565b600081519050919050565b600082825260208201905092915050565b60005b8381101561074f578082015181840152602081019050610734565b60008484015250505050565b6000601f19601f8301169050919050565b600061077782610715565b6107818185610720565b9350610791818560208601610731565b61079a8161075b565b840191505092915050565b600060208201905081810360008301526107bf818461076c565b905092915050565b7f4e487b7100000000000000000000000000000000000000000000000000000000600052602160045260246000fd5b7f416d6f756e74206d757374206c6172676572207468616e203000000000000000600082015250565b600061082c601983610720565b9150610837826107f6565b602082019050919050565b6000602082019050818103600083015261085b8161081f565b9050919050565b7f4e487b7100000000000000000000000000000000000000000000000000000000600052601160045260246000fd5b600061089c82610683565b91506108a783610683565b92508282019050808211156108bf576108be610862565b5b92915050565b6000819050919050565b60006108ea6108e56108e084610627565b6108c5565b610627565b9050919050565b60006108fc826108cf565b9050919050565b600061090e826108f1565b9050919050565b61091e81610903565b82525050565b60006060820190506109396000830186610659565b6109466020830185610915565b610953604083018461068d565b949350505050565b60008115159050919050565b6109708161095b565b811461097b57600080fd5b50565b60008151905061098d81610967565b92915050565b6000602082840312156109a9576109a86106b7565b5b60006109b78482850161097e565b91505092915050565b7f5472616e73666572206661696c65642e00000000000000000000000000000000600082015250565b60006109f6601083610720565b9150610a01826109c0565b602082019050919050565b60006020820190508181036000830152610a25816109e9565b9050919050565b6000604082019050610a416000830185610659565b610a4e602083018461068d565b9392505050565b7f4e487b7100000000000000000000000000000000000000000000000000000000600052602260045260246000fd5b60006002820490506001821680610a9c57607f821691505b602082108103610aaf57610aae610a55565b5b5091905056fea26469706673582212207c271fc846dc6f16d839858442e0fd933405a0e287016535881a7d9ebd5c361d64736f6c63430008110033a2646970667358221220fcc9b7575815b83bfa769c833c2239860ac8836e9b4e962b72f9ee80a3c4562864736f6c63430008110033",
  "linkReferences": {},
  "deployedLinkReferences": {}
}