{
    "_format": "hh-sol-artifact-1",
    "contractName": "Manager",
    "sourceName": "contracts/Manager.sol",
    "abi": [
        {
            "inputs": [
                {
                    "internalType": "string",
                    "name": "_url",
                    "type": "string"
                },
                {
                    "internalType": "uint256",
                    "name": "_target",
                    "type": "uint256"
                },
                {
                    "internalType": "uint256",
                    "name": "_deadline",
                    "type": "uint256"
                }
            ],
            "name": "createCampaign",
            "outputs": [
                {
                    "internalType": "uint256",
                    "name": "",
                    "type": "uint256"
                }
            ],
            "stateMutability": "nonpayable",
            "type": "function"
        },
        {
            "inputs": [
                {
                    "internalType": "uint256",
                    "name": "_campaignList",
                    "type": "uint256"
                }
            ],
            "name": "getCampaignInfo",
            "outputs": [
                {
                    "internalType": "address[]",
                    "name": "creator",
                    "type": "address[]"
                },
                {
                    "internalType": "uint256[]",
                    "name": "target",
                    "type": "uint256[]"
                },
                {
                    "internalType": "uint256[]",
                    "name": "deadline",
                    "type": "uint256[]"
                },
                {
                    "internalType": "uint256[]",
                    "name": "campaignId",
                    "type": "uint256[]"
                },
                {
                    "internalType": "uint256[]",
                    "name": "totalRaised",
                    "type": "uint256[]"
                },
                {
                    "internalType": "uint256[]",
                    "name": "Status",
                    "type": "uint256[]"
                },
                {
                    "internalType": "address[]",
                    "name": "campaignAddr",
                    "type": "address[]"
                },
                {
                    "internalType": "string[]",
                    "name": "url",
                    "type": "string[]"
                }
            ],
            "stateMutability": "view",
            "type": "function"
        },
        {
            "inputs": [],
            "name": "getTotalCampaigns",
            "outputs": [
                {
                    "internalType": "uint256",
                    "name": "",
                    "type": "uint256"
                }
            ],
            "stateMutability": "view",
            "type": "function"
        }
    ],
    "bytecode": "0x608060405234801561001057600080fd5b506128dd806100206000396000f3fe60806040523480156200001157600080fd5b5060043610620000465760003560e01c806316f43dd4146200004b5780633020580b146200006d578063e38e2b8214620000a3575b600080fd5b62000055620000e0565b60405162000064919062000bb3565b60405180910390f35b6200008b600480360381019062000085919062000c83565b620000e9565b6040516200009a919062000bb3565b60405180910390f35b620000c16004803603810190620000bb919062000d03565b6200023b565b604051620000d798979695949392919062001079565b60405180910390f35b60008054905090565b600080831162000130576040517f08c379a00000000000000000000000000000000000000000000000000000000081526004016200012790620011a0565b60405180910390fd5b4282101562000176576040517f08c379a00000000000000000000000000000000000000000000000000000000081526004016200016d9062001212565b60405180910390fd5b600080549050600080815480929190620001909062001263565b91905055506000338486898986604051620001ab9062000b8a565b620001bc9695949392919062001304565b604051809103906000f080158015620001d9573d6000803e3d6000fd5b509050806001600084815260200190815260200160002060006101000a81548173ffffffffffffffffffffffffffffffffffffffff021916908373ffffffffffffffffffffffffffffffffffffffff1602179055508192505050949350505050565b6060806060806060806060808867ffffffffffffffff8111156200026457620002636200136a565b5b604051908082528060200260200182016040528015620002935781602001602082028036833780820191505090505b5097508867ffffffffffffffff811115620002b357620002b26200136a565b5b604051908082528060200260200182016040528015620002e25781602001602082028036833780820191505090505b5093508867ffffffffffffffff8111156200030257620003016200136a565b5b604051908082528060200260200182016040528015620003315781602001602082028036833780820191505090505b5096508867ffffffffffffffff8111156200035157620003506200136a565b5b604051908082528060200260200182016040528015620003805781602001602082028036833780820191505090505b5094508867ffffffffffffffff811115620003a0576200039f6200136a565b5b604051908082528060200260200182016040528015620003cf5781602001602082028036833780820191505090505b5095508867ffffffffffffffff811115620003ef57620003ee6200136a565b5b6040519080825280602002602001820160405280156200041e5781602001602082028036833780820191505090505b5092508867ffffffffffffffff8111156200043e576200043d6200136a565b5b6040519080825280602002602001820160405280156200046d5781602001602082028036833780820191505090505b5091508867ffffffffffffffff8111156200048d576200048c6200136a565b5b604051908082528060200260200182016040528015620004c257816020015b6060815260200190600190039081620004ac5790505b50905060005b8981101562000b7e576001600082815260200190815260200160002060009054906101000a900473ffffffffffffffffffffffffffffffffffffffff1673ffffffffffffffffffffffffffffffffffffffff16630ee2cb106040518163ffffffff1660e01b815260040160206040518083038186803b1580156200054b57600080fd5b505afa15801562000560573d6000803e3d6000fd5b505050506040513d601f19601f82011682018060405250810190620005869190620013ca565b8982815181106200059c576200059b620013fc565b5b602002602001019073ffffffffffffffffffffffffffffffffffffffff16908173ffffffffffffffffffffffffffffffffffffffff16815250506001600082815260200190815260200160002060009054906101000a900473ffffffffffffffffffffffffffffffffffffffff1673ffffffffffffffffffffffffffffffffffffffff16639f5502936040518163ffffffff1660e01b815260040160206040518083038186803b1580156200065057600080fd5b505afa15801562000665573d6000803e3d6000fd5b505050506040513d601f19601f820116820180604052508101906200068b919062001442565b858281518110620006a157620006a0620013fc565b5b6020026020010181815250506001600082815260200190815260200160002060009054906101000a900473ffffffffffffffffffffffffffffffffffffffff1673ffffffffffffffffffffffffffffffffffffffff1663f00e6a2a6040518163ffffffff1660e01b815260040160206040518083038186803b1580156200072757600080fd5b505afa1580156200073c573d6000803e3d6000fd5b505050506040513d601f19601f8201168201806040525081019062000762919062001442565b888281518110620007785762000777620013fc565b5b6020026020010181815250506001600082815260200190815260200160002060009054906101000a900473ffffffffffffffffffffffffffffffffffffffff1673ffffffffffffffffffffffffffffffffffffffff16635d1ca6316040518163ffffffff1660e01b815260040160206040518083038186803b158015620007fe57600080fd5b505afa15801562000813573d6000803e3d6000fd5b505050506040513d601f19601f8201168201806040525081019062000839919062001442565b8682815181106200084f576200084e620013fc565b5b6020026020010181815250506001600082815260200190815260200160002060009054906101000a900473ffffffffffffffffffffffffffffffffffffffff1673ffffffffffffffffffffffffffffffffffffffff16635f8d96de6040518163ffffffff1660e01b815260040160206040518083038186803b158015620008d557600080fd5b505afa158015620008ea573d6000803e3d6000fd5b505050506040513d601f19601f8201168201806040525081019062000910919062001442565b878281518110620009265762000925620013fc565b5b6020026020010181815250506001600082815260200190815260200160002060009054906101000a900473ffffffffffffffffffffffffffffffffffffffff1673ffffffffffffffffffffffffffffffffffffffff1663e39a02ba6040518163ffffffff1660e01b815260040160206040518083038186803b158015620009ac57600080fd5b505afa158015620009c1573d6000803e3d6000fd5b505050506040513d601f19601f82011682018060405250810190620009e7919062001442565b848281518110620009fd57620009fc620013fc565b5b6020026020010181815250506001600082815260200190815260200160002060009054906101000a900473ffffffffffffffffffffffffffffffffffffffff1683828151811062000a535762000a52620013fc565b5b602002602001019073ffffffffffffffffffffffffffffffffffffffff16908173ffffffffffffffffffffffffffffffffffffffff16815250506001600082815260200190815260200160002060009054906101000a900473ffffffffffffffffffffffffffffffffffffffff1673ffffffffffffffffffffffffffffffffffffffff1663d6bd87276040518163ffffffff1660e01b815260040160006040518083038186803b15801562000b0757600080fd5b505afa15801562000b1c573d6000803e3d6000fd5b505050506040513d6000823e3d601f19601f8201168201806040525081019062000b47919062001582565b82828151811062000b5d5762000b5c620013fc565b5b6020026020010181905250808062000b759062001263565b915050620004c8565b50919395975091939597565b6112d480620015d483390190565b6000819050919050565b62000bad8162000b98565b82525050565b600060208201905062000bca600083018462000ba2565b92915050565b6000604051905090565b600080fd5b600080fd5b600080fd5b600080fd5b600080fd5b60008083601f84011262000c0c5762000c0b62000be4565b5b8235905067ffffffffffffffff81111562000c2c5762000c2b62000be9565b5b60208301915083600182028301111562000c4b5762000c4a62000bee565b5b9250929050565b62000c5d8162000b98565b811462000c6957600080fd5b50565b60008135905062000c7d8162000c52565b92915050565b6000806000806060858703121562000ca05762000c9f62000bda565b5b600085013567ffffffffffffffff81111562000cc15762000cc062000bdf565b5b62000ccf8782880162000bf3565b9450945050602062000ce48782880162000c6c565b925050604062000cf78782880162000c6c565b91505092959194509250565b60006020828403121562000d1c5762000d1b62000bda565b5b600062000d2c8482850162000c6c565b91505092915050565b600081519050919050565b600082825260208201905092915050565b6000819050602082019050919050565b600073ffffffffffffffffffffffffffffffffffffffff82169050919050565b600062000d8e8262000d61565b9050919050565b62000da08162000d81565b82525050565b600062000db4838362000d95565b60208301905092915050565b6000602082019050919050565b600062000dda8262000d35565b62000de6818562000d40565b935062000df38362000d51565b8060005b8381101562000e2a57815162000e0e888262000da6565b975062000e1b8362000dc0565b92505060018101905062000df7565b5085935050505092915050565b600081519050919050565b600082825260208201905092915050565b6000819050602082019050919050565b62000e6e8162000b98565b82525050565b600062000e82838362000e63565b60208301905092915050565b6000602082019050919050565b600062000ea88262000e37565b62000eb4818562000e42565b935062000ec18362000e53565b8060005b8381101562000ef857815162000edc888262000e74565b975062000ee98362000e8e565b92505060018101905062000ec5565b5085935050505092915050565b600081519050919050565b600082825260208201905092915050565b6000819050602082019050919050565b600081519050919050565b600082825260208201905092915050565b60005b8381101562000f6d57808201518184015260208101905062000f50565b8381111562000f7d576000848401525b50505050565b6000601f19601f8301169050919050565b600062000fa18262000f31565b62000fad818562000f3c565b935062000fbf81856020860162000f4d565b62000fca8162000f83565b840191505092915050565b600062000fe3838362000f94565b905092915050565b6000602082019050919050565b6000620010058262000f05565b62001011818562000f10565b935083602082028501620010258562000f21565b8060005b8581101562001067578484038952815162001045858262000fd5565b9450620010528362000feb565b925060208a0199505060018101905062001029565b50829750879550505050505092915050565b600061010082019050818103600083015262001096818b62000dcd565b90508181036020830152620010ac818a62000e9b565b90508181036040830152620010c2818962000e9b565b90508181036060830152620010d8818862000e9b565b90508181036080830152620010ee818762000e9b565b905081810360a083015262001104818662000e9b565b905081810360c08301526200111a818562000dcd565b905081810360e083015262001130818462000ff8565b90509998505050505050505050565b600082825260208201905092915050565b7f416d6f756e74206d757374206c6172676572207468616e203000000000000000600082015250565b6000620011886019836200113f565b9150620011958262001150565b602082019050919050565b60006020820190508181036000830152620011bb8162001179565b9050919050565b7f446561646c696e65206d75737420626520696e20746865206675747572650000600082015250565b6000620011fa601e836200113f565b91506200120782620011c2565b602082019050919050565b600060208201905081810360008301526200122d81620011eb565b9050919050565b7f4e487b7100000000000000000000000000000000000000000000000000000000600052601160045260246000fd5b6000620012708262000b98565b91507fffffffffffffffffffffffffffffffffffffffffffffffffffffffffffffffff821415620012a657620012a562001234565b5b600182019050919050565b620012bc8162000d81565b82525050565b82818337600083830152505050565b6000620012df83856200113f565b9350620012ee838584620012c2565b620012f98362000f83565b840190509392505050565b600060a0820190506200131b6000830189620012b1565b6200132a602083018862000ba2565b62001339604083018762000ba2565b81810360608301526200134e818587620012d1565b90506200135f608083018462000ba2565b979650505050505050565b7f4e487b7100000000000000000000000000000000000000000000000000000000600052604160045260246000fd5b620013a48162000d81565b8114620013b057600080fd5b50565b600081519050620013c48162001399565b92915050565b600060208284031215620013e357620013e262000bda565b5b6000620013f384828501620013b3565b91505092915050565b7f4e487b7100000000000000000000000000000000000000000000000000000000600052603260045260246000fd5b6000815190506200143c8162000c52565b92915050565b6000602082840312156200145b576200145a62000bda565b5b60006200146b848285016200142b565b91505092915050565b600080fd5b620014848262000f83565b810181811067ffffffffffffffff82111715620014a657620014a56200136a565b5b80604052505050565b6000620014bb62000bd0565b9050620014c9828262001479565b919050565b600067ffffffffffffffff821115620014ec57620014eb6200136a565b5b620014f78262000f83565b9050602081019050919050565b60006200151b6200151584620014ce565b620014af565b9050828152602081018484840111156200153a576200153962001474565b5b6200154784828562000f4d565b509392505050565b600082601f83011262001567576200156662000be4565b5b81516200157984826020860162001504565b91505092915050565b6000602082840312156200159b576200159a62000bda565b5b600082015167ffffffffffffffff811115620015bc57620015bb62000bdf565b5b620015ca848285016200154f565b9150509291505056fe60806040527313dc2e575b6a140141746534e082fb4665010b356000806101000a81548173ffffffffffffffffffffffffffffffffffffffff021916908373ffffffffffffffffffffffffffffffffffffffff1602179055503480156200006557600080fd5b50604051620012d4380380620012d483398181016040528101906200008b9190620003fa565b84600260006101000a81548173ffffffffffffffffffffffffffffffffffffffff021916908373ffffffffffffffffffffffffffffffffffffffff16021790555083600781905550826005819055508160039080519060200190620000f29291906200010d565b50806001819055506000600481905550505050505062000506565b8280546200011b90620004d0565b90600052602060002090601f0160209004810192826200013f57600085556200018b565b82601f106200015a57805160ff19168380011785556200018b565b828001600101855582156200018b579182015b828111156200018a5782518255916020019190600101906200016d565b5b5090506200019a91906200019e565b5090565b5b80821115620001b95760008160009055506001016200019f565b5090565b6000604051905090565b600080fd5b600080fd5b600073ffffffffffffffffffffffffffffffffffffffff82169050919050565b6000620001fe82620001d1565b9050919050565b6200021081620001f1565b81146200021c57600080fd5b50565b600081519050620002308162000205565b92915050565b6000819050919050565b6200024b8162000236565b81146200025757600080fd5b50565b6000815190506200026b8162000240565b92915050565b600080fd5b600080fd5b6000601f19601f8301169050919050565b7f4e487b7100000000000000000000000000000000000000000000000000000000600052604160045260246000fd5b620002c6826200027b565b810181811067ffffffffffffffff82111715620002e857620002e76200028c565b5b80604052505050565b6000620002fd620001bd565b90506200030b8282620002bb565b919050565b600067ffffffffffffffff8211156200032e576200032d6200028c565b5b62000339826200027b565b9050602081019050919050565b60005b838110156200036657808201518184015260208101905062000349565b8381111562000376576000848401525b50505050565b6000620003936200038d8462000310565b620002f1565b905082815260208101848484011115620003b257620003b162000276565b5b620003bf84828562000346565b509392505050565b600082601f830112620003df57620003de62000271565b5b8151620003f18482602086016200037c565b91505092915050565b600080600080600060a08688031215620004195762000418620001c7565b5b600062000429888289016200021f565b95505060206200043c888289016200025a565b94505060406200044f888289016200025a565b935050606086015167ffffffffffffffff811115620004735762000472620001cc565b5b6200048188828901620003c7565b925050608062000494888289016200025a565b9150509295509295909350565b7f4e487b7100000000000000000000000000000000000000000000000000000000600052602260045260246000fd5b60006002820490506001821680620004e957607f821691505b602082108114156200050057620004ff620004a1565b5b50919050565b610dbe80620005166000396000f3fe6080604052600436106100915760003560e01c8063c1cbbca711610059578063c1cbbca71461016d578063d6bd872714610189578063d7557f18146101b4578063e39a02ba146101cb578063f00e6a2a146101f657610091565b80630ee2cb10146100965780635d1ca631146100c15780635f8d96de146100ec5780639f55029314610117578063af157c1914610142575b600080fd5b3480156100a257600080fd5b506100ab610221565b6040516100b8919061082f565b60405180910390f35b3480156100cd57600080fd5b506100d661024b565b6040516100e39190610863565b60405180910390f35b3480156100f857600080fd5b50610101610255565b60405161010e9190610863565b60405180910390f35b34801561012357600080fd5b5061012c61025f565b6040516101399190610863565b60405180910390f35b34801561014e57600080fd5b50610157610269565b604051610164919061093c565b60405180910390f35b6101876004803603810190610182919061098f565b6102f7565b005b34801561019557600080fd5b5061019e61056b565b6040516101ab9190610a55565b60405180910390f35b3480156101c057600080fd5b506101c96105fd565b005b3480156101d757600080fd5b506101e06106cd565b6040516101ed9190610863565b60405180910390f35b34801561020257600080fd5b5061020b6106f6565b6040516102189190610863565b60405180910390f35b6000600260009054906101000a900473ffffffffffffffffffffffffffffffffffffffff16905090565b6000600154905090565b6000600754905090565b6000600454905090565b606060088054806020026020016040519081016040528092919081815260200182805480156102ed57602002820191906000526020600020905b8160009054906101000a900473ffffffffffffffffffffffffffffffffffffffff1673ffffffffffffffffffffffffffffffffffffffff16815260200190600101908083116102a3575b5050505050905090565b600260009054906101000a900473ffffffffffffffffffffffffffffffffffffffff1673ffffffffffffffffffffffffffffffffffffffff163373ffffffffffffffffffffffffffffffffffffffff16141561035257600080fd5b61035a610700565b600660006101000a81548160ff0219169083600281111561037e5761037d610a77565b5b02179055506000600281111561039757610396610a77565b5b600660009054906101000a900460ff1660028111156103b9576103b8610a77565b5b146103c357600080fd5b60008111610406576040517f08c379a00000000000000000000000000000000000000000000000000000000081526004016103fd90610af2565b60405180910390fd5b80600460008282546104189190610b41565b9250508190555060008054906101000a900473ffffffffffffffffffffffffffffffffffffffff1673ffffffffffffffffffffffffffffffffffffffff166323b872dd33600260009054906101000a900473ffffffffffffffffffffffffffffffffffffffff16846040518463ffffffff1660e01b815260040161049e93929190610bf6565b602060405180830381600087803b1580156104b857600080fd5b505af11580156104cc573d6000803e3d6000fd5b505050506040513d601f19601f820116820180604052508101906104f09190610c65565b61052f576040517f08c379a000000000000000000000000000000000000000000000000000000000815260040161052690610cde565b60405180910390fd5b7f906faaf913a60f38b5e8f2d6f5b163239bac2d994fa1a5d21751a51587a940573382604051610560929190610cfe565b60405180910390a150565b60606003805461057a90610d56565b80601f01602080910402602001604051908101604052809291908181526020018280546105a690610d56565b80156105f35780601f106105c8576101008083540402835291602001916105f3565b820191906000526020600020905b8154815290600101906020018083116105d657829003601f168201915b5050505050905090565b600260009054906101000a900473ffffffffffffffffffffffffffffffffffffffff1673ffffffffffffffffffffffffffffffffffffffff163373ffffffffffffffffffffffffffffffffffffffff161461065757600080fd5b6000600281111561066b5761066a610a77565b5b610673610700565b600281111561068557610684610a77565b5b1461068f57600080fd5b60055460045410156106a057600080fd5b6001600660006101000a81548160ff021916908360028111156106c6576106c5610a77565b5b0217905550565b6000600660009054906101000a900460ff1660028111156106f1576106f0610a77565b5b905090565b6000600554905090565b60006001600281111561071657610715610a77565b5b600660009054906101000a900460ff16600281111561073857610737610a77565b5b141561074757600190506107eb565b4260075410801561078c57506001600281111561076757610766610a77565b5b600660009054906101000a900460ff16600281111561078957610788610a77565b5b14155b1561079a57600290506107ea565b426007541180156107df5750600160028111156107ba576107b9610a77565b5b600660009054906101000a900460ff1660028111156107dc576107db610a77565b5b14155b156107e957600090505b5b5b90565b600073ffffffffffffffffffffffffffffffffffffffff82169050919050565b6000610819826107ee565b9050919050565b6108298161080e565b82525050565b60006020820190506108446000830184610820565b92915050565b6000819050919050565b61085d8161084a565b82525050565b60006020820190506108786000830184610854565b92915050565b600081519050919050565b600082825260208201905092915050565b6000819050602082019050919050565b6108b38161080e565b82525050565b60006108c583836108aa565b60208301905092915050565b6000602082019050919050565b60006108e98261087e565b6108f38185610889565b93506108fe8361089a565b8060005b8381101561092f57815161091688826108b9565b9750610921836108d1565b925050600181019050610902565b5085935050505092915050565b6000602082019050818103600083015261095681846108de565b905092915050565b600080fd5b61096c8161084a565b811461097757600080fd5b50565b60008135905061098981610963565b92915050565b6000602082840312156109a5576109a461095e565b5b60006109b38482850161097a565b91505092915050565b600081519050919050565b600082825260208201905092915050565b60005b838110156109f65780820151818401526020810190506109db565b83811115610a05576000848401525b50505050565b6000601f19601f8301169050919050565b6000610a27826109bc565b610a3181856109c7565b9350610a418185602086016109d8565b610a4a81610a0b565b840191505092915050565b60006020820190508181036000830152610a6f8184610a1c565b905092915050565b7f4e487b7100000000000000000000000000000000000000000000000000000000600052602160045260246000fd5b7f416d6f756e74206d757374206c6172676572207468616e203000000000000000600082015250565b6000610adc6019836109c7565b9150610ae782610aa6565b602082019050919050565b60006020820190508181036000830152610b0b81610acf565b9050919050565b7f4e487b7100000000000000000000000000000000000000000000000000000000600052601160045260246000fd5b6000610b4c8261084a565b9150610b578361084a565b9250827fffffffffffffffffffffffffffffffffffffffffffffffffffffffffffffffff03821115610b8c57610b8b610b12565b5b828201905092915050565b6000819050919050565b6000610bbc610bb7610bb2846107ee565b610b97565b6107ee565b9050919050565b6000610bce82610ba1565b9050919050565b6000610be082610bc3565b9050919050565b610bf081610bd5565b82525050565b6000606082019050610c0b6000830186610820565b610c186020830185610be7565b610c256040830184610854565b949350505050565b60008115159050919050565b610c4281610c2d565b8114610c4d57600080fd5b50565b600081519050610c5f81610c39565b92915050565b600060208284031215610c7b57610c7a61095e565b5b6000610c8984828501610c50565b91505092915050565b7f5472616e73666572206661696c65642e00000000000000000000000000000000600082015250565b6000610cc86010836109c7565b9150610cd382610c92565b602082019050919050565b60006020820190508181036000830152610cf781610cbb565b9050919050565b6000604082019050610d136000830185610820565b610d206020830184610854565b9392505050565b7f4e487b7100000000000000000000000000000000000000000000000000000000600052602260045260246000fd5b60006002820490506001821680610d6e57607f821691505b60208210811415610d8257610d81610d27565b5b5091905056fea2646970667358221220c45599628e7308da47d96f0d1b2dcc92f32ab6a75e2b9bb9dea5a1379c77359164736f6c63430008090033a264697066735822122025da415f9eb7fb78bccc01acc46a21cdba8221d2e0efaee73484c651e65cb47064736f6c63430008090033",
    "linkReferences": {},
    "deployedLinkReferences": {}
}