{
  "_format": "hh-sol-artifact-1",
  "contractName": "SCampaign",
  "sourceName": "contracts/SCampaign.sol",
  "abi": [
    {
      "inputs": [
        {
          "internalType": "address",
          "name": "_addr",
          "type": "address"
        },
        {
          "internalType": "uint256",
          "name": "_deadline",
          "type": "uint256"
        },
        {
          "internalType": "uint256",
          "name": "_target",
          "type": "uint256"
        },
        {
          "internalType": "string",
          "name": "_url",
          "type": "string"
        },
        {
          "internalType": "uint256",
          "name": "_id",
          "type": "uint256"
        }
      ],
      "stateMutability": "nonpayable",
      "type": "constructor"
    },
    {
      "anonymous": false,
      "inputs": [
        {
          "indexed": false,
          "internalType": "address",
          "name": "funder",
          "type": "address"
        },
        {
          "indexed": false,
          "internalType": "uint256",
          "name": "amount",
          "type": "uint256"
        }
      ],
      "name": "Contribute",
      "type": "event"
    },
    {
      "anonymous": false,
      "inputs": [
        {
          "indexed": false,
          "internalType": "address",
          "name": "funder",
          "type": "address"
        },
        {
          "indexed": false,
          "internalType": "uint256",
          "name": "_tokenId",
          "type": "uint256"
        },
        {
          "indexed": false,
          "internalType": "address",
          "name": "_nftAddr",
          "type": "address"
        }
      ],
      "name": "ContributeNFT",
      "type": "event"
    },
    {
      "inputs": [
        {
          "internalType": "uint256",
          "name": "_amount",
          "type": "uint256"
        }
      ],
      "name": "contribute",
      "outputs": [],
      "stateMutability": "payable",
      "type": "function"
    },
    {
      "inputs": [],
      "name": "getCStatus",
      "outputs": [
        {
          "internalType": "uint256",
          "name": "",
          "type": "uint256"
        }
      ],
      "stateMutability": "view",
      "type": "function"
    },
    {
      "inputs": [],
      "name": "getCreator",
      "outputs": [
        {
          "internalType": "address",
          "name": "",
          "type": "address"
        }
      ],
      "stateMutability": "view",
      "type": "function"
    },
    {
      "inputs": [],
      "name": "getDeadline",
      "outputs": [
        {
          "internalType": "uint256",
          "name": "",
          "type": "uint256"
        }
      ],
      "stateMutability": "view",
      "type": "function"
    },
    {
      "inputs": [],
      "name": "getId",
      "outputs": [
        {
          "internalType": "uint256",
          "name": "",
          "type": "uint256"
        }
      ],
      "stateMutability": "view",
      "type": "function"
    },
    {
      "inputs": [],
      "name": "getTarget",
      "outputs": [
        {
          "internalType": "uint256",
          "name": "",
          "type": "uint256"
        }
      ],
      "stateMutability": "view",
      "type": "function"
    },
    {
      "inputs": [],
      "name": "getTotalRaised",
      "outputs": [
        {
          "internalType": "uint256",
          "name": "",
          "type": "uint256"
        }
      ],
      "stateMutability": "view",
      "type": "function"
    },
    {
      "inputs": [],
      "name": "getUrl",
      "outputs": [
        {
          "internalType": "string",
          "name": "",
          "type": "string"
        }
      ],
      "stateMutability": "view",
      "type": "function"
    }
  ],
  "bytecode": "0x6080604052737196194358d9d101f9ce180538f4655aba3ff1806000806101000a81548173ffffffffffffffffffffffffffffffffffffffff021916908373ffffffffffffffffffffffffffffffffffffffff1602179055503480156200006557600080fd5b50604051620012033803806200120383398181016040528101906200008b919062000339565b84600360006101000a81548173ffffffffffffffffffffffffffffffffffffffff021916908373ffffffffffffffffffffffffffffffffffffffff1602179055508360078190555082600581905550806001819055508160029081620000f2919062000621565b506000600481905550505050505062000708565b6000604051905090565b600080fd5b600080fd5b600073ffffffffffffffffffffffffffffffffffffffff82169050919050565b600062000147826200011a565b9050919050565b62000159816200013a565b81146200016557600080fd5b50565b60008151905062000179816200014e565b92915050565b6000819050919050565b62000194816200017f565b8114620001a057600080fd5b50565b600081519050620001b48162000189565b92915050565b600080fd5b600080fd5b6000601f19601f8301169050919050565b7f4e487b7100000000000000000000000000000000000000000000000000000000600052604160045260246000fd5b6200020f82620001c4565b810181811067ffffffffffffffff82111715620002315762000230620001d5565b5b80604052505050565b60006200024662000106565b905062000254828262000204565b919050565b600067ffffffffffffffff821115620002775762000276620001d5565b5b6200028282620001c4565b9050602081019050919050565b60005b83811015620002af57808201518184015260208101905062000292565b60008484015250505050565b6000620002d2620002cc8462000259565b6200023a565b905082815260208101848484011115620002f157620002f0620001bf565b5b620002fe8482856200028f565b509392505050565b600082601f8301126200031e576200031d620001ba565b5b815162000330848260208601620002bb565b91505092915050565b600080600080600060a0868803121562000358576200035762000110565b5b6000620003688882890162000168565b95505060206200037b88828901620001a3565b94505060406200038e88828901620001a3565b935050606086015167ffffffffffffffff811115620003b257620003b162000115565b5b620003c08882890162000306565b9250506080620003d388828901620001a3565b9150509295509295909350565b600081519050919050565b7f4e487b7100000000000000000000000000000000000000000000000000000000600052602260045260246000fd5b600060028204905060018216806200043357607f821691505b602082108103620004495762000448620003eb565b5b50919050565b60008190508160005260206000209050919050565b60006020601f8301049050919050565b600082821b905092915050565b600060088302620004b37fffffffffffffffffffffffffffffffffffffffffffffffffffffffffffffffff8262000474565b620004bf868362000474565b95508019841693508086168417925050509392505050565b6000819050919050565b600062000502620004fc620004f6846200017f565b620004d7565b6200017f565b9050919050565b6000819050919050565b6200051e83620004e1565b620005366200052d8262000509565b84845462000481565b825550505050565b600090565b6200054d6200053e565b6200055a81848462000513565b505050565b5b8181101562000582576200057660008262000543565b60018101905062000560565b5050565b601f821115620005d1576200059b816200044f565b620005a68462000464565b81016020851015620005b6578190505b620005ce620005c58562000464565b8301826200055f565b50505b505050565b600082821c905092915050565b6000620005f660001984600802620005d6565b1980831691505092915050565b6000620006118383620005e3565b9150826002028217905092915050565b6200062c82620003e0565b67ffffffffffffffff811115620006485762000647620001d5565b5b6200065482546200041a565b6200066182828562000586565b600060209050601f83116001811462000699576000841562000684578287015190505b62000690858262000603565b86555062000700565b601f198416620006a9866200044f565b60005b82811015620006d357848901518255600182019150602085019450602081019050620006ac565b86831015620006f35784890151620006ef601f891682620005e3565b8355505b6001600288020188555050505b505050505050565b610aeb80620007186000396000f3fe60806040526004361061007b5760003560e01c8063c1cbbca71161004e578063c1cbbca71461012c578063d6bd872714610148578063e39a02ba14610173578063f00e6a2a1461019e5761007b565b80630ee2cb10146100805780635d1ca631146100ab5780635f8d96de146100d65780639f55029314610101575b600080fd5b34801561008c57600080fd5b506100956101c9565b6040516100a29190610668565b60405180910390f35b3480156100b757600080fd5b506100c06101f3565b6040516100cd919061069c565b60405180910390f35b3480156100e257600080fd5b506100eb6101fd565b6040516100f8919061069c565b60405180910390f35b34801561010d57600080fd5b50610116610207565b604051610123919061069c565b60405180910390f35b610146600480360381019061014191906106e8565b610211565b005b34801561015457600080fd5b5061015d610475565b60405161016a91906107a5565b60405180910390f35b34801561017f57600080fd5b50610188610507565b604051610195919061069c565b60405180910390f35b3480156101aa57600080fd5b506101b3610530565b6040516101c0919061069c565b60405180910390f35b6000600360009054906101000a900473ffffffffffffffffffffffffffffffffffffffff16905090565b6000600154905090565b6000600754905090565b6000600454905090565b600360009054906101000a900473ffffffffffffffffffffffffffffffffffffffff1673ffffffffffffffffffffffffffffffffffffffff163373ffffffffffffffffffffffffffffffffffffffff160361026b57600080fd5b61027361053a565b600660006101000a81548160ff02191690836002811115610297576102966107c7565b5b0217905550600060028111156102b0576102af6107c7565b5b600660009054906101000a900460ff1660028111156102d2576102d16107c7565b5b146102dc57600080fd5b6000811161031f576040517f08c379a000000000000000000000000000000000000000000000000000000000815260040161031690610842565b60405180910390fd5b80600460008282546103319190610891565b9250508190555060008054906101000a900473ffffffffffffffffffffffffffffffffffffffff1673ffffffffffffffffffffffffffffffffffffffff166323b872dd33600360009054906101000a900473ffffffffffffffffffffffffffffffffffffffff16846040518463ffffffff1660e01b81526004016103b793929190610924565b6020604051808303816000875af11580156103d6573d6000803e3d6000fd5b505050506040513d601f19601f820116820180604052508101906103fa9190610993565b610439576040517f08c379a000000000000000000000000000000000000000000000000000000000815260040161043090610a0c565b60405180910390fd5b7f906faaf913a60f38b5e8f2d6f5b163239bac2d994fa1a5d21751a51587a94057338260405161046a929190610a2c565b60405180910390a150565b60606002805461048490610a84565b80601f01602080910402602001604051908101604052809291908181526020018280546104b090610a84565b80156104fd5780601f106104d2576101008083540402835291602001916104fd565b820191906000526020600020905b8154815290600101906020018083116104e057829003601f168201915b5050505050905090565b6000600660009054906101000a900460ff16600281111561052b5761052a6107c7565b5b905090565b6000600554905090565b6000600160028111156105505761054f6107c7565b5b600660009054906101000a900460ff166002811115610572576105716107c7565b5b036105805760019050610624565b426007541080156105c55750600160028111156105a05761059f6107c7565b5b600660009054906101000a900460ff1660028111156105c2576105c16107c7565b5b14155b156105d35760029050610623565b426007541180156106185750600160028111156105f3576105f26107c7565b5b600660009054906101000a900460ff166002811115610615576106146107c7565b5b14155b1561062257600090505b5b5b90565b600073ffffffffffffffffffffffffffffffffffffffff82169050919050565b600061065282610627565b9050919050565b61066281610647565b82525050565b600060208201905061067d6000830184610659565b92915050565b6000819050919050565b61069681610683565b82525050565b60006020820190506106b1600083018461068d565b92915050565b600080fd5b6106c581610683565b81146106d057600080fd5b50565b6000813590506106e2816106bc565b92915050565b6000602082840312156106fe576106fd6106b7565b5b600061070c848285016106d3565b91505092915050565b600081519050919050565b600082825260208201905092915050565b60005b8381101561074f578082015181840152602081019050610734565b60008484015250505050565b6000601f19601f8301169050919050565b600061077782610715565b6107818185610720565b9350610791818560208601610731565b61079a8161075b565b840191505092915050565b600060208201905081810360008301526107bf818461076c565b905092915050565b7f4e487b7100000000000000000000000000000000000000000000000000000000600052602160045260246000fd5b7f416d6f756e74206d757374206c6172676572207468616e203000000000000000600082015250565b600061082c601983610720565b9150610837826107f6565b602082019050919050565b6000602082019050818103600083015261085b8161081f565b9050919050565b7f4e487b7100000000000000000000000000000000000000000000000000000000600052601160045260246000fd5b600061089c82610683565b91506108a783610683565b92508282019050808211156108bf576108be610862565b5b92915050565b6000819050919050565b60006108ea6108e56108e084610627565b6108c5565b610627565b9050919050565b60006108fc826108cf565b9050919050565b600061090e826108f1565b9050919050565b61091e81610903565b82525050565b60006060820190506109396000830186610659565b6109466020830185610915565b610953604083018461068d565b949350505050565b60008115159050919050565b6109708161095b565b811461097b57600080fd5b50565b60008151905061098d81610967565b92915050565b6000602082840312156109a9576109a86106b7565b5b60006109b78482850161097e565b91505092915050565b7f5472616e73666572206661696c65642e00000000000000000000000000000000600082015250565b60006109f6601083610720565b9150610a01826109c0565b602082019050919050565b60006020820190508181036000830152610a25816109e9565b9050919050565b6000604082019050610a416000830185610659565b610a4e602083018461068d565b9392505050565b7f4e487b7100000000000000000000000000000000000000000000000000000000600052602260045260246000fd5b60006002820490506001821680610a9c57607f821691505b602082108103610aaf57610aae610a55565b5b5091905056fea26469706673582212209aa97316aee89c1f1eb29688eab786fe84a604b45513462eaf6e6e710acd8d9b64736f6c63430008110033",
  "linkReferences": {},
  "deployedLinkReferences": {}
}